:020000041000EA
:1000000000B5324B212058609868022188439860DF
:10001000D860186158612E4B002199600221596106
:100020000121F02299502B49196001219960352056
:1000300000F044F80222904214D00621196600F024
:1000400034F8196E01211966002018661A6600F04E
:100050002CF8196E196E196E052000F02FF8012189
:100060000842F9D1002199601B49196000215960AB
:100070001A491B48016001219960EB211966A021F2
:10008000196600F012F800219960164914480160C1
:100090000121996001BC002800D000471248134993
:1000A000086003C880F30888084703B5996A0420EC
:1000B0000142FBD001200142F8D103BD02B5186610
:1000C0001866FFF7F2FF186E186E02BD00000240BE
:1000D000000000180000070000035F00212200005C
:1000E000F4000018222000A00001001008ED00E03C
:1000F00000000000000000000000000074B24E7A12
:1001000000200420F7010010CB010010CD010010E9
:10011000C9010010C9010010C9010010C901001077
:10012000C9010010C9010010C9010010CF01001061
:10013000C9010010C9010010D1010010D301001045
:10014000C1010010C1010010C1010010C101001067
:10015000C1010010C1010010C1010010C101001057
:10016000C1010010C1010010C1010010C101001047
:10017000C1010010C1010010C1010010C101001037
:10018000C1010010C1010010C1010010C101001027
:10019000C1010010C1010010C1010010C101001017
:1001A000C1010010C1010010C1010010C101001007
:1001B000C1010010C1010010C1010010C1010010F7
:1001C000EFF30580103800BE00BE00BE00BE00BECA
:1001D00000BE00BEF2EB88715C5E0110805E011013
:1001E0003802001090A31AE71E481F49086006C88D
:1001F00081F3088810471D480068002801D019487D
:10020000F3E70DA40ECC002902D000F012F8F9E7B4
:100210001749184A002000E001C19142FCD116495B
:100220008847164988471649884700BEFDE701C937
:1002300001C29A42FBD37047805E0110C0000020CB
:1002400080180020407601100000042000000420E7
:10025000407601100010042000100420000000006F
:10026000704700000000000008ED00E0000000D032
:1002700080180020FC280020CD460010C10C001082
:100280008D460010F8B5C04606480749091A8B107C
:10029000C90FC91810B5491003D0044B002B00D06A
:1002A000984710BD80180020801800200000000032
:1002B000054B10B5002B03D00449054800E000BFF2
:1002C000FFF7E2FF10BDC0460000000098270020A5
:1002D0001CDA0010D0238022F0B51B0683B09202F6
:1002E0009A616B46DD1D80230122290024482B7072
:1002F0000DF042FB234E37003400113723780122E2
:1003000029001F482B7001340DF036FBBC42F5D19B
:10031000D02380221B0692025A619A614023012257
:10032000290017482B700DF027FB002401232A0019
:10033000002113482C700DF0E7FA2B7832789A429E
:1003400009D10136BE42F1D1D02380221B06920290
:100350005A6103B0F0BDD02380221B0692020A48E6
:100360005A6104F00DFC202404F080FBA043C0B2CD
:100370005128F9D100220021002001F03FFEF3E7CF
:1003800000C00340DC10002020DA0010F0B5DE468B
:1003900057464E464546E0B5C04D01212B7887B003
:1003A00098460F2342461A409346424612098A460F
:1003B000114001916A78514691461A404B469E067B
:1003C0009B0905920093AB78B5489A09DB09049321
:1003D000F023114003916C791B0324041C402B79FA
:1003E000EA781B02134352461C432B7C01279B08CF
:1003F0001A40029204F0C4FB53464246B60F134221
:1004000003D04B461F4200D133E102234246134240
:1004100003D04A46134200D132E10423424613423C
:1004200003D04A46134200D131E15B46DB1003D0D2
:10043000059BDB1000D161E1019B002B00D102E1A3
:10044000032E00D106E1009B032B00D10BE1039B9F
:10045000002B03D0049B002B00D156E1E3179A46F2
:10046000002C00D1EAE08F4B9C4250DD8E4B9C4229
:1004700000DDB9E1029B002B07D05B46002B00D1C9
:10048000CDE1019B002B00D1D1E153462200E821B0
:10049000864801F0F3FF864B0100984200D8C9E07E
:1004A000731EDBB29A462B785B0635D45B46002B75
:1004B00000D071E15346012B51D9009B022B36D15C
:1004C0007C4B9C4200DD33E2029B002B56D1049B07
:1004D000002B59D1019B002B00D122E1012E02D02B
:1004E000022E00D14AE1744B9C4202DD734804F0B5
:1004F00047FB002F00D191E0714804F041FB380028
:1005000007B0F0BCBB46B246A946A046F0BD2100EC
:100510006C4804F0B9FBADE75346012B46D9009B6C
:10052000022B00D150E15B46002B00D03FE1029B43
:10053000002B26D0009B334320D1049B002B0AD0F4
:10054000039B002B07D06048604904F09DFB019B92
:10055000002B53D0C7E7019B002B52D0C3E75C4868
:1005600004F00EFB009B012E00D106E2022B00D10D
:1005700029E1029B002B00D1CCE10027554804F073
:10058000FFFA049B002B03D0039B002B00D0FEE05E
:10059000019B002B2BD0012EA2D10C2342461342EB
:1005A000A1D04D4804F0ECFA9DE700270323424612
:1005B0001340032B00D03FE14A461340032B00D0E9
:1005C000C1E0009B012E00D19AE1022B00D100E294
:1005D000029B002BD2D1049B002B00D19AE0039BFD
:1005E000002B00D0D3E0019B002B00D078E7009BCC
:1005F000002B00D095E0012E00D139E1022E00D170
:1006000058E15B46002B00D16DE7344804F0B8FA9E
:10061000294B9C4202DD294804F0B2FA304804F02C
:10062000AFFA00276BE722005346E8211F4801F08C
:1006300025FF01002B4804F027FB31E72A4804F08E
:100640009FFA002716E7294804F09AFA0027032E9C
:1006500000D0F8E60321264804F016FB009B002793
:10066000032B00D0F3E60321224804F00DFB002702
:10067000EDE601220121204804F006FB0027C4E634
:10068000022202211C4804F0FFFA0027C5E60322DB
:100690000321194804F0F8FA0027C6E6DC10002010
:1006A0004CDA00100F27000040420F000010A5D4C4
:1006B000FF2C310150C30000A086010090DF001024
:1006C000D0DF001058DB001018DE001000093D00DC
:1006D000B4DC00105CDE0010A0DE001010DF0010A3
:1006E000E0DF001038DC00103CDB001094DA001072
:1006F000B4DA0010E0DA001064DA001004220421F9
:10070000BF4804F0C1FA002796E6BE4804F038FA64
:100710000027A3E6019B002B30D1009B002B00D1CA
:100720006CE7B94804F02CFA012E00D1B4E0022E97
:1007300000D140E15B46002B00D066E7B34B9C4202
:1007400000DC6BE767E7B24804F01AFA009B012E61
:1007500000D106E1022B00D193E0059B002B2AD0AB
:10076000029B002B00D008E700270AE7019B002B23
:1007700000D13FE1012E00D19AE00027A54B9C4219
:1007800000DCB6E6A44804F0FBF9ACE60027A34978
:10079000A34804F079FAFBE6A24804F0F1F95346C5
:1007A000012B00D801E7009B022B6AD00027059B94
:1007B000002B00D0BBE69C4804F0E2F90027B6E627
:1007C0009A4804F0DDF90027994B9C4200DD84E053
:1007D0005B46002B00D177E6059B002BEBD0029BFC
:1007E000002B00D0CAE6CCE62100924804F04CFA77
:1007F000029B002B00D116E75B46002B79D0019BB2
:10080000002B00D00FE78C4804F0BAF922005346C1
:10081000E8218A4801F032FE002701000AE78848F3
:1008200004F0AEF9019B0027002B00D02DE6824892
:1008300004F0A6F9002728E6754804F0A1F9009B0A
:10084000012E4ED1002B00D09AE05B46002B00D049
:10085000B9E0029B002B00D08FE6049B002B02D056
:10086000039B002B92D1019B002B00D0A1E000271D
:100870000C23424613425FD15B46002B00D132E687
:10088000C3E66B4B9C425BDC059B0027002BA6D18B
:10089000654804F075F963E70C234246134200D122
:1008A00048E7684804F06CF95B46002B00D0ACE6E2
:1008B000002718E6574B9C424BDC5B46002B00D1CF
:1008C00017E6614804F05CF9A8E6584804F058F9C6
:1008D000574B00279C4200DC7EE75C4804F050F94F
:1008E00076E7022B00D16EE75B46002B00D034E7A1
:1008F0003FE6534804F044F9019B002B86D182E780
:10090000002B00D16BE7022B00D1A3E0504804F08C
:1009100037F964E7049B002B00D127E7039B002BEA
:1009200000D033E7019B0027002B00D15FE6D7E51D
:10093000464804F025F9C7E5424804F021F960E68D
:10094000424804F01DF9059B0027002B00D046E724
:100950009EE7314804F014F95B46002B00D054E6C2
:10096000C1E5002B2FD0022BAFD0394804F008F995
:10097000059B002B00D0F3E68AE7002B00D168E747
:10098000009B022B00D11BE7314804F0F9F85B46CD
:10099000002BEDD1029B002B00D0EEE5049B002B39
:1009A00063D0039B002B00D0F0E6019B002B00D10D
:1009B000B7E60027F1E5174B9C4212DC5B46002BA3
:1009C00000D12BE67DE7059B002B00D160E70027D7
:1009D00005E7174B9C4200DC01E71C4804F0D0F807
:1009E000FDE60D4804F0CCF85B46002B00D00CE689
:1009F000002778E5009B0027002B00D1FEE590E65C
:100A000064DA001004DB0010E8DE0010A0860100AC
:100A1000B4DC001060EA00003CDF001000093D007B
:100A200018DE00107CDC0010A4DD001004DD0010D6
:100A300050C30000A4DB001008DC00100010A5D497
:100A4000D4DB0010A0DE001010DF0010DCDD001091
:100A50005CDD0010084804F093F8084B9C4200DC71
:100A6000BDE6074804F08CF8B6E6019B002B00D1E8
:100A700057E6002737E5C04604DD001050C30000EC
:100A8000DCDD0010F0B54E46DE4657464546E0B583
:100A90000026724B89B09B46714B9A46714B994622
:100AA000714B9846714B0293714B0393714B0493B6
:100AB000714B0093714B0193714B0593584604F0B1
:100AC0005FF8504604F05CF8484604F059F8404698
:100AD00004F056F8029804F053F8039804F050F824
:100AE000049804F04DF8009804F04AF8019804F0D6
:100AF00047F803F0BBFFC0B202E003F0B7FFC0B29B
:100B00000A28FAD07228F8D03138C0B207964028A7
:100B100003D8059B80001B589F465A4804F030F8C4
:100B2000CCE7FFF733FC0028C8D0D0248025FFF79E
:100B3000D1FB18232406AD0206AAA561D37006AB2B
:100B4000D91C012250480CF017FF64200021656178
:100B500001F0DAF809B0F0BCBB46B246A946A0469F
:100B6000F0BD4A4804F090F8494807A907F01CFA7C
:100B70007F23484FFA791340079AD2011343FB7140
:100B80009CE7454803F0FCFF444803F0F9FF444864
:100B900003F0F6FF434803F0F3FF434803F0F0FF90
:100BA00006ABDC1C2100414807F0FEF92378202227
:100BB0001900914344294AD0572B4CD0773B5A42D5
:100BC00053415B013021334F7A788A4313437B7062
:100BD00074E7FFF7DBFB71E7354804F055F807A928
:100BE0002B4807F0E1F90023079AE821314801F08A
:100BF00045FC0F21274F0203130D3B717B79120F28
:100C00008B431343F8707B7158E72B4804F03CF892
:100C10001F4807A907F0C8F9079BDBB2022B18D0C1
:100C2000043B5A425341DB013F221A4F79780A4074
:100C300013437B7042E70024164F204D21003A5D9C
:100C40002800013404F020F8112CF7D136E71023E6
:100C5000B8E74023E8E72023B4E7C0460CE00010E3
:100C600024E000103CE000105CE0001074E0001094
:100C700088E00010B0E00010D0E00010E4E00010C8
:100C8000FCE40010A8E1001000C0034090E1001057
:100C900000E10010DC10002038E1001050E10010ED
:100CA0005CE1001070E1001080E100108CE10010A8
:100CB00004E100100010A5D4ECE0001024E10010C5
:100CC000F0B5DE46454657464E46E0B5A14C8DB0E0
:100CD00003F07CFE03F0CAFE20009F4906F0B4FB3F
:100CE0000222D02780259D4963680A60216813404D
:100CF0008532514048320A40994912200A60994A87
:100D00000121136000F03AF90121132000F036F9B7
:100D10000121102000F032F911203F06AD0200F051
:100D200047F90521112000F029F97D6214207D6129
:100D300000F03EF90521142000F020F980235B0328
:100D4000BB62302302AABD612000137608A90122EC
:100D50000CF012FE002164207D6100F0D5FFFFF74A
:100D600091FEFFF7B7FA804803F00AFF182302AAA2
:100D7000BD612000137608A901220CF0FDFD64205E
:100D800000217D6100F0C0FF1022002104A801F0C5
:100D90006BFF1022002108A801F066FF734B0025AD
:100DA000984602ABDC1D724B724E0093724B9B4611
:100DB00043461B78002B77D1002003F00BFE43380D
:100DC000C0B22F280BD8009B80001B589F465B4663
:100DD00040221D70337813433370FFF77BFA5B4674
:100DE0001B78002BE4D0802252037B681342FCD195
:100DF00080239B02BB616823012223702100554898
:100E00000CF0BAFD04AB9A4608AB99464346B0468F
:100E100001930123220000214E4825700CF074FD3F
:100E200026780123220000214A4825700CF06CFD31
:100E3000237836041B021E4322000123002145486B
:100E400025700CF061FD524623780021334308C21F
:100E50009246012322003F4825700CF055FD26786C
:100E60000123220000213B4825700CF04DFD237822
:100E700036041B0222001E43002101233548257041
:100E80000CF042FD4A462378334308C208AB914632
:100E90005345BED1019B4646984680239B027B6109
:100EA00043461B78002B87D07F2233781340337062
:100EB000FFF710FA43461D7080239B02BB61182385
:100EC00021002370012223480CF056FD80239B0251
:100ED000642000217B6100F017FF6DE701235A4673
:100EE00013704022337893433370FFF7F3F9802374
:100EF0009B02BB61182301222100237015480CF0CE
:100F00003BFD80239B027B616420002100F0FCFEFE
:100F10005B461B78002B00D14AE764E700220021E2
:100F2000002001F06BF85B461B78002B00D13FE7F7
:100F300059E7802332785B4213433370FFF7CAF9D5
:100F40000123424613705B461B78002B00D12FE72C
:100F500049E7C04600C0034000093D0004F00340DB
:100F600000D0034004E00340B8E10010F528002061
:100F700000E60010DC100020D8100020094A830091
:100F80009A1810B514684022544080322240064C12
:100F9000C000A44663441A60044B9C466044416010
:100FA00010BDC04604C0014004D0014000400140D3
:100FB0000123D0228340120693629361094A830081
:100FC0009A1811684022514080320A400649C000F8
:100FD0008C4663441A60054B9C460523604443607D
:100FE0007047C04604C0014004D0014000400140A9
:100FF0008023DB051868000F7047C0460FB400B5AA
:10100000084883B003F0BCFD049B002B07D005A962
:101010001800019103F0D0FA034803F0B1FD01205C
:1010200003F0E2FADCE1001090DA001070B5EFF3A3
:10103000108C72B60D4D2B68002BFCD0BFF35F8F68
:101040000724CB08C618C05C01230C40A3401C0039
:101050000440034207D118433070BFF35F8F2C6008
:101060008CF3108870BD1000FFF7C8FF2C0100D072
:10107000F8B54746CE46884680B5EFF3108C72B679
:101080001C4D2C68002CFCD0BFF35F8F9A4222D8F5
:1010900007210126894602E00132934218D34D46CA
:1010A00037001540AF40D4080119045D2742F3D141
:1010B00010003C430C70BFF35F8F00220D4B1A6091
:1010C0008CF3108800280EDBC0BCB946B046F8BDD2
:1010D00001204042EFE7BFF35F8F00232B608CF3CA
:1010E0001088012040424346002BEDD00898FFF7BE
:1010F00085FFC0462C0100D0044A1078431CDBB2A7
:10110000172B00D9102313707047C046ED10002034
:1011100010B5064B064C82B00100009318221F2325
:101120002000FFF7A5FF02B010BDC046ECE10010A3
:10113000202300200021044B044ABFF35F8F02C329
:101140009342FAD17047C046000100D0800100D020
:10115000054B064A1360064A136053609360D360E0
:1011600013615361936170478080808000E400E0E8
:1011700004E400E01F2318401E3B8340002905D0F3
:10118000C021044A4900535013607047802201492E
:101190008B50FAE700E100E001228240034B1B681C
:1011A00013405A1E9341D8B27047C04600E100E098
:1011B00001238340014A13607047C04600E200E00B
:1011C000064B10309B688000C358054A00209B1ACC
:1011D0002F229A424041C0B27047C04600ED00E065
:1011E000F010002070B50D00EFF3108672B60F4AB4
:1011F0001368002BFCD0BFF35F8F0D4B10309B6842
:1012000084001B590B4A934203D09D4201D000F049
:10121000A5FF074B9B681D51BFF35F8FBFF35F8F27
:101220000022024B1A6086F3108870BD240100D0A2
:1012300000ED00E0C1010010F0B557464E46DE4615
:101240004546E0B585B0060000911700EFF3108B1E
:1012500072B66A4A1368002BFCD0BFF35F8F00257B
:10126000674B5D579A46002D00DAA9E06B00654C8C
:1012700001935B199B009846A146C1444B465246D8
:101280009B7910361370604BB6009B6899590B1B05
:101290002F2B33D95D4B994200D0ACE0019B4246E5
:1012A0009C465B4B6544AD0063535A4B0232A21817
:1012B000043B9B1A1B05584A5B0D651913436B8051
:1012C000564B0121AB80FF23AB71009BEF71AB60EC
:1012D0004B460B4319004C4B9B689951BFF35F8FF2
:1012E000BFF35F8F0022454B1A608BF3108805B067
:1012F000F0BCBB46B246A946A046F0BD01200A009C
:101300008243D3798C46BB4231D8454613004449C9
:101310001B1B5B415943090D3D4B63533D4B02354C
:101320006519043B5B1B1B053B4D5B0D2B43AA461C
:101330004D466B800425AC465546E044131F44449B
:101340001B1B1B055B0D1D434B46997100999D802E
:1013500099604946DF71334B01431360BBE7580086
:10136000C01880002018C179B9422FD90200062385
:10137000D356002BF3DA02932B4B61460393131DD4
:101380009A4604235B429C46E14450464B461B1A56
:101390001B055B0D9C46204B957198466346404665
:1013A00003439380019B5A199200039BA418A380C6
:1013B000029B1C4AA371009B2260E771A3608AE72D
:1013C00000F0CCFE002553465D574FE7908802930E
:1013D0004005131D9A46031561469C464046D44479
:1013E000634604302018181AE0230005400D1B0244
:1013F00018430390C5E700F0B1FE4FE7240100D089
:10140000F6280020F010002000ED00E0C1010010DF
:1014100000A1FFFF2011002000E0FFFF01BDFFFF42
:10142000AAAA00000148804701BD000070B5012450
:101430000443EFF30581EFF3108C72B6214A136871
:10144000002BFCD0BFF35F8F1F4B05001F4AED1A26
:101450006D416A43120D1E4D8900AE6852B2765836
:10146000A6421CD00621595691421CD01221595631
:10147000914222D01E215956914220D02A215956FC
:101480000324914210D0134B19781A708171BFF365
:101490005F8F00220B4B1A608CF3108870BDAB6815
:1014A0000D4C5C50EFE700246100091989005B18BE
:1014B000FF21997109499980E5E70124F4E70224A5
:1014C000F2E7C046240100D0F0100020AAAA0000D4
:1014D00000ED00E0F6280020C101001001BDFFFF73
:1014E00010B5084B084C82B0010000930022052380
:1014F0002000FFF7BDFD002801DB1F23181A02B0F2
:1015000010BDC04608E20010FA280020024B9C469D
:1015100061448900016070474000003470B5114C8F
:10152000114DAC420FD2FF262368002B0CD0FFF7E1
:10153000E3FD01002000FFF7E9FFA680BFF35F8F06
:101540000834AC42F0D370BDFFF7D6FD0100200097
:10155000FFF7DCFF2671BFF35F8F0834AC42E3D3A3
:10156000F1E7C046781800208018002010B504006C
:10157000FFF7C2FD01002000FFF7C8FFFF23237122
:10158000BFF35F8F10BDC04610B504000120FFF708
:10159000BFFD034BC3189B002360BFF35F8F10BDDB
:1015A00040000034034B9C46614489000160BFF356
:1015B0005F8F7047400000340A4B1968EFF31080CA
:1015C00072B60A68002AFCD0BFF35F8F1B68BFF3B6
:1015D0005F8F00221A6080F3108840BF0020002136
:1015E0007047C046D4280020F0B5DE4657464E4628
:1015F0004546E0B587B0EFF30583032201251A4085
:10160000954091008846A946B34B03925C58B34B72
:101610001D60B34B04934B46B24843630823E55E19
:10162000002D37DAA3881BB2002B00DBADE0A379D5
:10163000002B00D0EEE00823E05E002820DB430012
:1016400062691B18DB00D3189E68DD68731C00D12B
:1016500011E1A44801004144826A0B69B71A9B1A40
:101660009F4215D30123026A039883401A420FD088
:101670009C4800F037FB8D4202DCCCD18642CAD9AF
:1016800040BF07B0F0BCBB46B246A946A046F0BD7D
:101690000E61EDE762696B0092465B19DB009A44CC
:1016A00053469E68DF6800F01DFB8F42BADC00D114
:1016B00003E1002F00DAE8E05246534652691B6905
:1016C0009346049A934200D1D9E052460821605EC5
:1016D00052880004594610439847009001910099A0
:1016E000019A0B001000134300D1CEE013000A0052
:1016F000B61A9F41002806DB7A4800F0F3FA009EF4
:10170000019F36184F4153469E60DF6000229A5E6B
:10171000002A00DA86E7530099186069C900411869
:1017200002938B68C9689B46B94200DD7AE702D113
:10173000B34200D976E708239C46A4440595654644
:101740002281A446029B2C0006E053009918C90090
:1017500041188D68C968AB469B18DB00C318B942B5
:1017600006DC00D1B3E01C000023E25E002AECDAC4
:10177000230064469C4653461A806346059D1D809F
:10178000A3881BB2002B00DA51E72269EFF3108126
:1017900072B61368002BFCD0BFF35F8F0123A788BC
:1017A0005B42A3803FB22369BFF35F8F00221A60C0
:1017B00081F31088002F00DA39E723000833220074
:1017C0009A4666697B00DB19DB00F318996850467E
:1017D0008C460824115FDD68002910DB029306E0C7
:1017E000AB4244D00023E15E2000002906DB4C0020
:1017F0006418E4003419E368AB42F1DD029B078012
:1018000000201F5E1980002FDCDA1400A379002B62
:1018100000D110E70023A37126000823E15E0836FB
:101820004B1C00D12CE70800A246656902E03E008F
:101830004B1C1AD04B005B18DB00EF180A008C46DB
:10184000E95E7B881BB2002BF1DA01235B42DC17D7
:10185000BB60FC60824205D0534631801B893B80CF
:1018600053461A8160464B1CE4D15446E5E6A36812
:101870006345B7D9C2E76B1C00D0EAE6F8E65B46E1
:1018800058461B69984700281BD153461B8822697C
:101890002381EFF3108372B611680029FCD0BFF3E7
:1018A0005F8F514662880A8022696580BFF35F8F2F
:1018B0000021116083F31088B4E6864200D8F8E670
:1018C000B0E65B461A685B680092019307E7B34590
:1018D00000D848E74CE7C046B82700203C700540D8
:1018E000E91500100040054070B52E4C2569002D0B
:1018F00004D00A212C48FFF709FE70BD2B4E0321AE
:10190000300000F0E5F9E660FFF7F6FB284B032214
:101910009C46D02322701B061B6801216370254B57
:101920006044A3600F23800020610220638063690C
:101930004942A18019800231198647311D835852CE
:1019400018315A5275325C39995218320131995214
:101950001832013199521832013199520835183232
:101960009D5202311832995218320131995218326F
:10197000013199521832013199521832013199527C
:101980001832013199520C4B0C49DC600130356240
:10199000FFF728FC01210320FFF7ECFB084B1D603B
:1019A000A7E7C04638110020D42800200040054099
:1019B00040000034FFFF1000B8270020E915001098
:1019C000386005400048704738110020F8B51F0006
:1019D00008AB1B7804001600002B08D100F08AF930
:1019E00032003B00121A8B41002B00DA52E02269D0
:1019F000EFF3108072B61368002BFCD0BFF35F8F3B
:101A00000223E15E63694A005218D2009B182269E2
:101A1000002936DB1D886580BFF35F8F00251560C8
:101A200080F31088069A9E60DF601A61079A5A61F7
:101A30005A8801325204520C101C002A1FD082B264
:101A40005880080410432669EFF3108772B6326895
:101A5000002AFCD0BFF35F8FA2881A80A18023697F
:101A6000BFF35F8F00221A6087F310880A4923783A
:101A70008C4601329A40E36863441A60F8BD012045
:101A8000DDE7BFF35F8F0023136080F31088012030
:101A90004042F3E70020F1E73C20000070B5010070
:101AA0000469EFF3108C72B620680028FCD0BFF3F5
:101AB0005F8F02200D5E4C6968004019C000241839
:101AC0000869002D36DB26884E80BFF35F8F002625
:101AD00006608CF31088E36063880498013320610A
:101AE0005B0405985B0CA26060611A1C002B1FD080
:101AF00093B22804628018430A69EFF3108C72B61F
:101B00001368002BFCD0BFF35F8F8B8823808D8000
:101B10000B69BFF35F8F00221A608CF310880B787B
:101B200001329A40CB6808498C4663441A6070BD04
:101B30000122DDE7BFF35F8F002303608CF3108881
:101B400001204042F3E7C0463C20000010B5438925
:101B50000A1493421ADD53009B184269DB00D31824
:101B60000469EFF3108C72B62268002AFCD0BFF330
:101B70005F8F5A88090494B2090C8A4208D003691D
:101B8000BFF35F8F00221A608CF31088002010BD15
:101B90008022120214435C80012302698371BFF327
:101BA0005F8F002111608CF31088044902788C4605
:101BB0009340C268012062441360E8E73C200000C3
:101BC00040787047F0B557464E46DE464546E0B58C
:101BD00006000F0085B0EFF3058399468B46002B76
:101BE00012D0384900204B6ABB4206D38A6ADB1BFD
:101BF000591E8B41B2424041184305B0F0BCBB4670
:101C0000B246A946A046F0BD2F4B9A46DB689846DF
:101C100053461B784046039300F064F84246039B0A
:101C2000040004339B009B580D001B1A3900300040
:101C3000001BA941894510DC0DD020BF214A00209E
:101C4000536A5B45D9D3926ADB1B591E8B41B24262
:101C500040411843D1E78342EFD900F04BF83200FE
:101C60003B00121A8B41002B1ADB00230193174B08
:101C70003200009350463B00FFF710FF011E0FDDBE
:101C8000104B5A6A5A451BD39B6AB34216D350462F
:101C9000FFF75CFF0B4A0020536A5B45ADD3D2E7E8
:101CA000084A0020536A5B45A7D30020926ADB1BD9
:101CB000B24240415A1E934118439EE75A45E6D12D
:101CC00020BFE4E70040054038110020B91500109E
:101CD00010B5024A0248FFF7A9F910BD24E200102E
:101CE000242300200300416A0A00986A596A8A4244
:101CF000FAD17047034B596A0A00986A596A9142AF
:101D0000FAD170470040054070B504000D00174A35
:101D1000536A1900966A536A8B42FAD1300019004F
:101D200024184D41AB4216D813D0104B2A005B6AE1
:101D30009D4203D90D494B6A9342FCD3934207D18C
:101D40000A4A02E0516A994202D1916AA142F9D34A
:101D500070BDA642E9D9054B5B6A1C005A1CEFD046
:101D6000012201246442E5175242E3E700400540A6
:101D7000F8B5DE464E4657464546E0B58B4605006B
:101D80000A991800160000F03BFB0A9B6C001F022A
:101D9000324B64199C46A4006444636881469F42A8
:101DA00000D967602B1FDBB29846012B30D9C023C6
:101DB00080229B01E31812011A60294BAD0059598A
:101DC0009A4600291BD17301E026226853401E4029
:101DD000802342465B01E3181E60012A30D980232C
:101DE00080229B01E31812011A6053464A4667603D
:101DF0005A51F0BCBB46B246A946A046F8BD586948
:101E000000F0FEFA013043001B18033BFDD2DAE775
:101E10005B46012BCBD1C02303229B01E3181A6040
:101E2000023AA3681A42FCD07301E0262268AD0092
:101E300053401E4080230A4A5B019246E3181E600D
:101E40005A462168514003220A401A6001225B462B
:101E50009A40A3681A42FCD0C1E7C0460080004007
:101E600028230020F0B546464F46D646C0B51F0091
:101E7000344B44009C462418A4006444636888469C
:101E80001600FF2B02D880235B006360031FDBB2C8
:101E90009A46012B30D9C02380229B01E3181201FE
:101EA0001A60294B85005959994600291BD17301A5
:101EB000E026226853401E40802352465B01E3180F
:101EC0001E60012A30D9802380229B01E318120171
:101ED0001A6080235B0063604B465F51E0BCBA46EA
:101EE000B146A846F0BD586900F08AFA01304300B7
:101EF0001B18033BFDD2DAE74346012BCBD1C023AD
:101F000003229B01E3181A60023AA3681A42FCD02C
:101F10007301E0262268850053401E4080230A4A50
:101F20005B019146E3181E6042462168514003223E
:101F30000A401A60012342469340A2681342FCD033
:101F4000C1E7C0460080004028230020014B8000EC
:101F5000C058704728230020F8B5040021481E000F
:101F600017000D0000F04CFA0100380000F048FAAC
:101F7000069B36041B031E432368002B20DB1A4BF1
:101F80001A49E3185A1E93418022920194465B42FB
:101F90001B0B174A1B0363441360164A13601F0090
:101FA0000A689743FBD1144B2560E2182123A060F7
:101FB00013602368002BFCDA0823E6601360F8BD89
:101FC0003F2322681340AB42D9D1A3681B051B0DE8
:101FD0008342D4D1EE22E368D2021340B342CED181
:101FE000EDE7C046001BB7000040FDBF08C0004041
:101FF00000E0004000F000400430000010B58024F4
:102000001C4BE4051C6000281AD001231A4C18430D
:102010001A4BDC611A4C44401C6259629862802160
:10202000144BC9051960174817490860E021C90415
:102030001960002A07D18022144B12061A6010BDC5
:102040000E4BD861EBE753019B1A9B009A18802333
:1020500012015B049A4209D213000D490B60074B31
:102060005A608022094BD2051A60E8E7094B1A0032
:10207000F3E7C04600B00540D3C007B0008005407C
:102080002D3FF84FFCFF01000820014000A0054053
:1020900090270020FFFFFF008023024A9B000B4394
:1020A000D362704700800540002310B50100988A74
:1020B0001B8B984710BDC046162310B50100188829
:1020C00002331B88984710BDF8B54746CE4680B509
:1020D0000F1E18D01423994604330400002501264E
:1020E00098464B461888434621681B88984701C488
:1020F000431E984101350640AF42F2D13000C0BCCA
:10210000B946B046F8BD0126F8E7C046002370B5D1
:1021100004000D00988A05491B8B98470300002096
:10212000002C01DB0130A0402900984755420000F7
:10213000AA23064A1B0113608D235B00D360044968
:10214000044B19605368002BFCDA704700400240D2
:1021500000B0FA00006002407047C04610B5014868
:10216000FEF74CFF48E2001070B5074D074EB54230
:1021700009D20024013E761BB60808CD98472300FB
:102180000134B342F9D170BDD8D9001014DA00106F
:10219000054B064A06491A60064A074B1A601000AA
:1021A0000B689843FBD1704700E00040BFCDFBFEB9
:1021B00008C00040FE7F3C0000F00040044BDB6C98
:1021C000002B03D18022034BD2021A607047C04615
:1021D000000011504C201150044A054B1A60054A6A
:1021E0001368DB018033FBD17047C046FFFFFF015E
:1021F00000F0004008C000404022034B9A675A6735
:102200001A67DA667047C04600F0014010B5FEF765
:1022100091FF10BDF8B52749274C284D641AA61028
:102220003200302E00D930222800920000F022FD2A
:10223000BC2C3BD830202F232C196407204A801B4C
:10224000E40F9B1B052B16D93700002C02D0B300DE
:10225000771CEA50001B33199B004108EB18C9009A
:10226000C9181A605A6008339942FAD1012303420F
:102270001CD09843C619B300EA50731C2F2E15D0FA
:102280009B00EA50B31C2E2E10D09B00EA50F31C8A
:102290002D2E0BD09B00EA50331D2C2E06D09B0018
:1022A000EA50731D2B2E01D09B00EA50054B9D6018
:1022B000F8BDC04600010010C00100100000002061
:1022C000C101001000ED00E0002310B5294C82B0E0
:1022D000A367FFF72DFF0122274B1A60636C012BC8
:1022E000FCD10322254B1A60224A936B012BFCD1AF
:1022F000013300930121224A22480433FFF72CFEC8
:10230000052301210093204A2048FFF725FE0022E3
:10231000022104201E4BFFF7A5FD0022012105200C
:102320001C4BFFF79FFD0022002107201A4BFFF7EF
:1023300099FD002200210820174BFFF793FD802311
:10234000DB000093002200210920134BFFF710FD52
:102350000022104B00210620FFF784FD0420FFF728
:10236000F5FD0E4900F04CF801000020FFF794FE47
:1023700002B010BD008000403CB0004030B00040D2
:10238000002F685900800240008C864700C0024040
:10239000001BB70040597307006CDC0240420F007D
:1023A00001480421014B184750110020C92000109A
:1023B000124A936F9B0815D29066D166002905D00A
:1023C000FFE7FFE7FFE7516F106F704704B580210B
:1023D0000906C2175140002800D0C8430BF0B4FAD8
:1023E000002104BDF0B5146E556E576F166FFFF7E0
:1023F000E3FF1466556657671667F0BD000000D00E
:10240000114A936F9B0813D210665166002905D0BC
:10241000FFE7FFE7FFE7516F106F704704B5002833
:1024200001D00020C0430BF08FFA002104BDC0464C
:10243000F0B5146E556E576F166FFFF7E5FF146613
:10244000556657671667F0BD000000D094464A4AAB
:10245000926F9208624601D228E0C046F0B5464E1F
:10246000346E756E776F366F00F020F89446424AEE
:1024700014665566576716676246F0BD94463E4A35
:10248000926F9208624601D254E0C046F0B53A4ECF
:10249000346E756E776F366F00F04CF89446364A9E
:1024A00014665566576716676246F0BD002B24DB3D
:1024B00011D000293EDA00B5C943404200D10131B4
:1024C00000F038F8C943404200D10131DB435242A9
:1024D00000D1013300BD002AEBD1002801D1002931
:1024E00005D00020C90FC90701D1C043410800B57C
:1024F0000BF01AFA0022002300BD00B500290ADB08
:10250000DB43524200D1013300F014F8C94340428A
:1025100000D1013100BDC943404200D10131DB434C
:10252000524200D1013300F005F8DB43524200D1A2
:10253000013300BD002923D1002B18D1002A0CD073
:10254000BC460D4F38667A6600210023FFE7FFE79F
:10255000FFE77A6F386F67467047002801D0074859
:10256000010000B50BF0E0F90022002300BD0200DD
:102570000B00002000217047000000D0FFFFFFFF8C
:10258000002B00D0BFE0130C28D1002AE7D080B484
:10259000114F39667A66FFE7FFE730B4040C7B6FB2
:1025A000396F1B0423433B667A66FFE7FFE7FFE7CB
:1025B000C04684B27B6F3D6F1B0423433B667A6643
:1025C000FFE7FFE7C04600232C042D0C7A6F386F1D
:1025D00000196941B0BC7047000000D0F0B59446C6
:1025E0000025140E01D112020835140F01D1120179
:1025F0000435940F01D192000235D40F01D152005D
:102600000135D40B0134254F7C66254C3C660E0CFD
:1026100093B2FFE7FFE7FFE73C6F6643360C7703B3
:10262000BE467343DF0B5B04C01AB941130C7343FE
:10263000DB18C91ACE086643360CB64493B273430E
:102640001F0F1B01C01AB941130C73431F0B1B054D
:10265000C01AB941860D8F023E436643360C092DE0
:1026600024DB520A7243801A7703460A6643360C0B
:1026700016235B1BDE40DF40BF1964466643821BA6
:102680007046043506330100D940A840C01900D374
:102690000131A24206D20023F0BD0000000000D0AC
:1026A000FFFFFFFF121B0130F3D3F1E709277F1B68
:1026B000FE406446A2B27243801A00D20139220C55
:1026C0007243130C1204821A99410B0070460435B0
:1026D00013370100F940A840801900D30131002BC5
:1026E00002D1A2420AD2F0BD013000D30131121B47
:1026F000FAD2013BF8D1A24200D2F0BD013000D3A2
:102700000131121BF7E7F0B51C0C00D080E00CB4CF
:1027100000251C0A04D11B02160E33431202083591
:102720001C0B04D11B01160F3343120104359C0B03
:1027300004D19B00960F334392000235DC0B02D18B
:1027400092185B4101351C00971864410134464FD3
:102750007C66464C3C660E0CFFE7FFE7FFE7C04691
:102760003C6F6643360C7703BE4697B27743C01B77
:1027700000D20139C01B00D201399FB27743C91B77
:10278000C91B170C77437E04FF0B801BB941CE0891
:102790006643360C0C2D33DBB644120B1F053A434F
:1027A0001B0B97B27743C01B00D201399FB277430E
:1027B000C91B170C77433E043F0C801BB941860DA3
:1027C0008F023E43664329277F1BFE400C3D774620
:1027D000AF40BF1930BCA2B2ABB272437343801A90
:1027E0009941220C7243130C1204801A9941020081
:1027F0000B000137001BA941F9D2781E0021F0BD62
:102800000C277F1BFE4077467F0BAF40FF19E0E7A8
:1028100000245D1C07D0144F7D663966FFE7FFE793
:10282000FFE7FFE73C6F95B29EB265436643401BEE
:10283000B141150C1E0C6543664336042F0C3E4314
:102840002D04401BB141994204D202000B0020002C
:102850000021F0BD01D19042F7D3801A9941013493
:102860009942F2D3F6E70000000000D0FFFFFFFF1F
:1028700048404140484018B4134B5B68019308BD81
:1028800018B4114B1B68019308BD94460F4A926F10
:10289000920805D2624618B40B4BDB68019308BD61
:1028A0000A4AF0B5146E556E576F166F6246FFF701
:1028B000F2FF064A1466556657671667F0BD18B4EE
:1028C000014B9B68019308BD081A0020000000D04E
:1028D000FFB550404240504059404B40594000E005
:1028E000FFB5154F4C00640D03D0BC4204D10C035E
:1028F00014D80020090D09055C00640D03D0BC420A
:1029000004D11C030AD800221B0D1B0501264B40D5
:1029100009D44B4003D58B4200D18242FFBD99427E
:10292000FCD19042FFBD0B43DB1803431343F5D0AA
:10293000C9434918FFBD0000FF07000000B5FFF7BD
:10294000CFFF01D0002000BD012000BD00B5FFF782
:10295000C7FF804100BDC04600B5FFF7C1FF01D9E8
:10296000002000BD012000BD00B5FFF7B1FF01D977
:10297000002000BD012000BD00B5FFF7A9FF804188
:1029800000BD012040054A00121804D85A00121850
:1029900001D8002070470120704700000021002866
:1029A00005D17047C1174840401AFAD0C90713B57E
:1029B000064B1B6898470CBC441CA2401005120B28
:1029C0000349091B09051943114310BDD0270020F5
:1029D0001F04000010B54C00620D8023D218DB00EC
:1029E000D21A5B057E2A10DD9E3A13DACC17090352
:1029F000490819435242D140640001341532202A5B
:102A000005DAD0400843604310BD002010BD0846E1
:102A1000604310BDC80FC018013810BD18B4024B78
:102A20005B6A019308BD0000081A002018B4024B2D
:102A3000DB6D019308BD0000081A0020C94211D3C4
:102A400000B549004908002200F014F8002904D418
:102A5000002240428A41114600BD80210906002023
:102A600000BD000018B4024BDB6E019308BD0000EE
:102A7000081A002018B4024B9B6F019308BD000098
:102A8000081A002018B4024BDB6F019308BD000048
:102A9000081A002010B50148FEF7B0FA54E2001001
:102AA000132370B51D78012D19D014DD1D48FFF7D3
:102AB00003FB06001C48FFF7FFFA1C4C8022310084
:102AC000200000F0D7F8022D06D01948FFF7ECFAE5
:102AD000184B186070BD154C174BA364F5E7174BE6
:102AE000124C23606360A360E36023616361A361B0
:102AF000E36123626362A362E36223636363A363AC
:102B0000E36323646364A364E36423656365A3658B
:102B1000E36523666366A366E36623676367A3676B
:102B2000E367D9E75344000053460000081A002029
:102B30004C330000D0270020412B0010952A0010B4
:102B400007B5604601880A0A0230DF2AFAD1C9B205
:102B5000820804D3028840880004104300E0006823
:102B6000014A5050039007BD081A002051434343C7
:102B7000C9188C46110C83B24B4310B4040C61434A
:102B800092B280B2504362431C041B0C001910BC6B
:102B900059411304120CC0185141614470470000A0
:102BA00010B50148FEF72AFA00DB0010132310B518
:102BB00010481C78FFF780FA0100012C0AD003DDD1
:102BC00080220D4800F056F80C48FFF76DFA0C4BC8
:102BD000186010BD084C5422200000F04BF8220071
:102BE000084980322368002B00D1216004349442CC
:102BF000F8D1E9E753460000D42700204C33000009
:102C0000D0270020A12B001010B5040004F00EFD09
:102C1000002804D0034B04199C4200D810BD024880
:102C2000FEF7ECF9000004206CE2001010B50C0077
:102C300005F006F8002804D0034B04199C4200D884
:102C400010BD0248FEF7DAF9000004206CE2001023
:102C500010B504F0F5FC10BD01480421014B1847E4
:102C600060110020C9200010014B1B6818470000AC
:102C700060110020014B5B681847000060110020C4
:102C80009A4200D2885470477047C046F8B55746FC
:102C9000DE464E464546E0B599460A9B07009A46F1
:102CA0000D9B884693460B9C9B073BD10C9B9C42FB
:102CB0003DD21E1B0B9415000C005E442A004B46AF
:102CC000013521002020B847B542F7D1A0460B9C22
:102CD000002C20D0454636195346321B013C185D66
:102CE00029004B46B847002CF6D12B0035009846FA
:102CF0000D9B9B070FD55B46EC1A0C9BA3420AD990
:102D0000464698462A004B46310020200134B847F9
:102D100001354445F6D32800F0BCBB46B246A9466F
:102D2000A046F8BD16001500002CD3D1E0E7160030
:102D30001500002CCED1EEE7F0B54546DE465746ED
:102D40004E46E0B585B09C4610AB1B78149F934669
:102D500098460F9C129E139DBB074CD4002D42D168
:102D6000B44248D201233B4099460E9B013B9A4610
:102D7000302304E0524601341355A64201D9202CD9
:102D8000F8D14B46002B00D183E00E9B013B9946C6
:102D90003023A54205D82EE04A4601341355AC42F3
:102DA00029D0202CF8D1FB060CD57B0554D4A642A3
:102DB00063D0A54261D0119B102B50D0022B57D06D
:102DC000202C32D1202301930E9B5A460093039767
:102DD00063460295FFF75AFF05B0F0BCBB46B2460A
:102DE000A946A046F0BD01233B40994601233B4242
:102DF0002AD1B442B9D3FB061CD57B05DBD4002C09
:102E0000D5D1119B102B5BD0119B022B6BD03023A3
:102E100001240E9A13704346002B10D17B073ED538
:102E20002B260E9A631C1655CDE72300013430265D
:102E30000E9AD654202CC5D04346002BEED02D261A
:102E40000E9A631C1655BEE74346002B2FD0013D5A
:102E5000B44200D289E798E7119B102BB2D1BB0690
:102E600037D5202CAED058230E9A13550134A7E73E
:102E7000202CA7D02300013407E0631E012CC0D012
:102E8000119A102A31D0022AD1D162260E9AD65434
:102E900096E7FB06CED57B0500D488E78BE72300B9
:102EA0003E0790D520260E9A013316558BE70C234A
:102EB0003B405A1E9341ED1AB44200D255E764E7F5
:102EC000BB060ED478230E9A02241370302353705D
:102ED000A1E7202C00D175E778230E9A1355013411
:102EE0006EE75823EFE76033EDE70E9AA61E914692
:102EF0004E44BA0602D55822327098E778223270D2
:102F000095E7C04610B5002800D110BD01F0EEFDD8
:102F1000FBE7C0460B0010B5002802D049681B68CB
:102F2000984710BDF0B55746DE464E464546E0B5DB
:102F300095B083460F00924698461E9A1F9B10003C
:102F40001900209EFFF71DFD002800D0EAE11E9821
:102F50001F990122C54B5242FFF7F8FC002800D010
:102F600014E11E981F990122C14B5242FFF704FD44
:102F7000002800D0E9E01E981F990022BD4BFFF702
:102F8000FBFC002800D0C8E01E981F990022BA4B15
:102F9000FFF7DCFC002800D0BFE01E981F9900223C
:102FA0000023FFF7D3FC002800D0E4E000230B93BC
:102FB000229B5B0500D406260024302307E017215E
:102FC00006AA013452181355013E202C01D0092EB7
:102FD000F5D81E981F99FFF7FDFCA84BF2009B182F
:102FE0001A685B68050008920993FFF7DBFC020092
:102FF0000B001E981F99FFF73EFC089A099BFFF7EC
:103000005EFC06900791FFF709FD8146FFF7C6FCBD
:1030100002000B0006980799FFF72DFC0022984B41
:1030200006900791FFF7A8FC002800D10DE10123CD
:103030009C46E1444846FFF7B1FC02000B000898AB
:103040000999FFF789FC002802D000239946013531
:10305000002E00D1D9E006954D46B94614E006AAE7
:10306000944617230A216344280001341F19FFF7EF
:10307000C7F93031397028000A21013EFFF7C0F945
:10308000092D00D817E10500202CE8D14F46069DF8
:1030900020240CAE06AA17239446634499465B4647
:1030A000B34606930FE04B4628000A210134E61888
:1030B000FFF77EF93031280031700A21FFF778F9E7
:1030C000051E00D1E4E0202CEDD1069B5E469B4618
:1030D0000323229A1340012B18D1219B002B15D0DA
:1030E0000B9B002B00D1FDE0219B013B2193202B6A
:1030F0000CD93023219A07E0172006A901340918BA
:103100000B55944200D3CCE0202CF5D1229B0194A6
:103110000393219B0096029322E0229B5246049344
:10312000219B3900039358461E9B1F9C02960093D7
:103130000194434600F04AF90400200015B0F0BCA9
:10314000BB46B246A946A046F0BD229B5B070FD402
:1031500003224C4B229901920391219900930291F1
:103160004346524639005846FFF790FD0400E4E715
:103170000422454BEEE71E9A1F9B00200021FFF71B
:103180007AFB01231E901F910B9311E7229B54465B
:103190009B0711D1219B042B0ED9219B55469C46A0
:1031A0005E46043C64442A00434601353900202031
:1031B000B047A542F7D1B346344D26002B1F9946A0
:1031C0005B46A3461C003200E87843463900013DC7
:1031D000A04701364D45F6D123005C469B46229B15
:1031E00004349B07A9D55346219AE31A9A42A4D9DD
:1031F0005E4615002200434639002020B047534662
:103200000134E31A9D42F5D897E72800FFF7CAFB7F
:1032100002000B001E981F99FFF72DFB0022184B90
:1032200006900791FFF792FB0CAE002800D031E723
:10323000069807990022124BFFF79EFB002800D04A
:1032400028E7012301359D4324E7002206980799CA
:103250000B4BFFF77BFB002800D0F9E64B46002B19
:103260005CD101239C46E144F2E6C046FFFFEFFF3C
:10327000FFFFEF7F65CDCD4165CDCDC1C8E8001022
:103280000000E03FC8E20010C0E20010D0E20010F1
:10329000069B5E469B460323229A1340012B00D1D6
:1032A00081E0202C00D131E70B9B002B27D02D2370
:1032B000335501342AE74F46069D202C00D1E7E61E
:1032C0003022331907E0172006A9013409180A55DE
:1032D000202C00D1DCE6A342F5D12E220CAE013425
:1032E000F254D7E60C23229A134257D0219B013B7C
:1032F0002193A34200D9FCE6202C00D106E7229BB3
:103300005B0703D52B2333550134FFE6229B1B07B4
:1033100000D4FBE6202333550134F7E6DB0700D465
:1033200096E69EE7229B55469B0711D1219B032BD6
:103330000ED9219B54469C465E46033D65442200BF
:103340004346013439002020B047AC42F7D1B346A0
:10335000B9465F461C4EEC1C2A00B07843464946ED
:103360000135B847013EAC42F6D1229BBB464F46E1
:103370009B0700D4E1E65346219AE31A9A4200D80B
:10338000DBE65E4615002200434639002020B047A8
:1033900053460134E31AAB42F5D3CEE6219BA34258
:1033A00000D9A6E6B2E6219B002B00D179E70B9B62
:1033B000002B97D0219B013B21939C4200D298E6A1
:1033C000202C00D073E7A1E6CCE20010F0B5DE4679
:1033D00057464E464546E0B599B081468B469246E3
:1033E0009846229A239B10001900FFF7CAFA00287A
:1033F00000D0CAE0229823990122824B5242FFF763
:10340000BBFA002800D0C0E02298239901227E4B0D
:103410005242FFF79BFA002800D0B6E02298239989
:1034200000220023FFF792FA002800D0C9E1229B76
:10343000239C08930994089809998023269ADB0015
:103440001A400D928022269C1201144022000B94F7
:10345000269C07000E001C4200D0ADE00B00034389
:1034600000D0D5E0002A00D00AE2220006332493DF
:10347000022313400C930223134200D002E2259B47
:10348000042B00D20FE2043B0B93002304250A9384
:103490000022229823990023FFF758FA002800D031
:1034A00003E25A4B269A134004930B9B0393249BED
:1034B0000293089B099C0093019459464346524647
:1034C0004846FFF72FFD02002020269B1F270340C0
:1034D00059424B415B421840531C0893594643469E
:1034E0004530C8470A9AD317D4185C40D30F0A93C3
:1034F0006B1E0B9308AB9C460025674401E0202D12
:103500000FD020000A21FEF77BFF01357E193031F4
:10351000317020000A21FEF773FF26000400092EF7
:10352000EDD8052306930B9B59460593002304937E
:103530000A3303930A9B4846029310AB0093089A00
:1035400043460195FFF7F8FB0C9B002B2DD053460B
:10355000C41A259BA34228D94D465F4681461E00CA
:10356000534639001A19202043460134A847A64281
:10357000F6D8534648462599C21A01320023914293
:1035800000D386E1013018180FE0269B0493259B99
:103590000393249B0293229B239C00930194434614
:1035A000524659464846FFF7BDFC19B0F0BCBB4631
:1035B000B246A946A046F0BD01432BD10B9B220089
:1035C000002B00D154E700230A93249B0A9A00247D
:1035D000934200DD85E12298239900220023FFF722
:1035E000B5F9002800D035E1269B084A02941A401C
:1035F0008023DB0013430493259B0393089B099CC2
:10360000CBE7C046FFFFEF7FFFFFEFFFFFF7FFFFB6
:1036100006232493B44B70009C46400D6044FFF792
:10362000C1F9B24AB24BFFF74AF9B24AB24BFFF7BF
:1036300027F93603B14B360B334304000D00380035
:1036400019000022AE4BFFF716F9AE4AAE4BFFF75A
:1036500036F902000B0020002900FFF711F9FFF7EF
:10366000B9F90A90FFF79EF9A84AA94B04000D008A
:10367000FFF725F90022A74BFFF702F9FFF7AAF998
:10368000A54A0600A54B20002900FFF718F9040001
:1036900030000D000C96FFF785F9A14AA14BFFF70A
:1036A0000EF902000B0020002900FFF7E4F80200E9
:1036B0000B0006000F00FFF702F9320004000D00B6
:1036C0003B0030003900FFF7DBF800220E900F912D
:1036D000954B20002900FFF7D8F80022934BFFF705
:1036E000CFF802000B0020002900FFF7CEF80022DF
:1036F0008F4BFFF7C5F802000B0020002900FFF7F1
:10370000C4F80D008021040032003B000020C905F0
:10371000FFF7B1F802000B0020002900FFF7B0F816
:1037200002000B000E980F99FFF7AFF80022734BC1
:10373000FFF7A6F87F4B0C9C9C46644400222305AF
:10374000FFF7BDF806000F0002000B00089809996A
:10375000FFF7FCF800280AD00A9B3000013B390033
:103760000A930022714BFFF790F806000F000A9AA7
:10377000330063323900C62A12D802222698042563
:1037800010400B9A0C90002A25D1259B042B05D9BB
:10379000002800D0A1E0259B043B0B93042541E0C9
:1037A0000222269810400B9A0C90002A12D1259BD9
:1037B000052B76D9002872D1259B0525053B0B9357
:1037C00034E0802212069446229B0893239B634494
:1037D000099330E605250B4300D1F6E608980999D0
:1037E000554A564BFFF7C0F8002808D008980999A9
:1037F0000022534BFFF7AAF8002800D0E5E6249BEF
:10380000002B1CD00D9B002B19D0249B013B249333
:10381000259BAB4204D90C9B002B5AD002230C935E
:1038200000230B930A9B002B00D131E608980999DD
:1038300032003B00FFF729F80890099128E6259B04
:10384000AB42EDD90C9B002B43D000230B930233EA
:103850000C93E7E78020269B3A4A00061A40802313
:1038600084460294089C099D2900DB0013430493BD
:10387000259B6144220003930B00009201938EE686
:103880000524A8E600230B930A93023304250C9326
:10389000FEE553468C46013B63441B1A72E6022345
:1038A0000C930525C2E70423EDE58020089E099FBF
:1038B000000639008446269A224B61441340049343
:1038C0000B9B32000393249B02930B000092019305
:1038D000F3E5259B5B1B0B93A4E7022304250C93C4
:1038E000A0E79C1A013C76E601FCFFFFFB799F50A4
:1038F0001344D33FB3C8608B288AC63F0000F03F13
:103900000000F83F61436F63A787D23F71A3790935
:103910004F930A400000E03F1655B5BBB16B024023
:10392000EF39FAFE422EE63F00002C400000244012
:1039300000001840FF0300002D431CEBE2361A3F45
:1039400080842E41FFF7FFFFF0B5DE4657464E4616
:103950004546E0B5A5B01E002E9B92460C93CD4A7D
:10396000CD4B80468B461A60002900D1EAE1002346
:1039700030789946002800D1ECE1C84B4C460B93B7
:10398000C74B454657460E930AE0631C98462200F3
:103990003B005946A84744463078002800D187E0CC
:1039A00001362528F1D108239A46043B9946023B6B
:1039B0009846013B00229C460D943078711C030010
:1039C000203BDBB2102B03D80B9C9B00E3589F4697
:1039D0000300303B89460D9C092B3AD900239846B9
:1039E0002A2800D1C1E000239A462E284BD003009C
:1039F000683BDBB2122B1ED80E999B00CB589F461A
:103A000063460E001A43D8E743460E001A43D4E734
:103A10004B460E001A43D0E710230E001A43CCE7A2
:103A200053460E001A43C8E780235B001A43FF3B4E
:103A30009C467078E1444E4667284FD82428A4D984
:103A40000300253BDBB2422B9FD896499B00CB5805
:103A50009F46002394461E0000E00131B3009B19ED
:103A60005B001E180878303E0300303B092BF4D968
:103A70000123624689469C460023B0469A460E00C2
:103A8000E1442E28B3D13021802049428C46C00029
:103A9000024370784B4684446146092900D86CE1A2
:103AA0002A2800D17AE101239C464E46E1449EE754
:103AB000A146A846BA46CA4503D801235B425344EF
:103AC000994653464A4659460020C047200025B033
:103AD000F0BCBB46B246A946A046F0BD0300693B18
:103AE000DBB20D930F2B00D94FE7012199408C4693
:103AF0006D49894661464B4619400F9163464946D8
:103B00000B4200D028E10D9B0A2B3AD0072B00D0A6
:103B10003BE70C9B190008C98846002B00D14BE1FC
:103B200021200243914614A98C461F220F21624492
:103B30008C4651460D950C91A24615000F9902E056
:103B400020290CD0130064461C4020003730092C7B
:103B500000D80738013168541A090F2BF0D80C9B94
:103B600054460D9D9A460F9133E10C9B02CB88463B
:103B7000002947DB0C9301239C4670784E46E144B4
:103B800031E70C9B02CB14935346002B00D138E154
:103B90009C4608780B000C908C44002801D100F062
:103BA00098FC89466146944603E05A780133002A1E
:103BB00001D08B42F9D1494662465B1A0C900F93B3
:103BC000530500D520E10223180010400D90134248
:103BD00000D1CBE30D930B1BB1469A465E460C9881
:103BE00022003B003100A84753460134185D0028ED
:103BF000F6D1B3464E460D9B002B00D0C7E1149B77
:103C00000C93C9E60C9301239C4628384942024391
:103C1000884670784E46E144E5E670786C2800D11D
:103C20007FE180235B001A43FF3B9C46E14402E7AF
:103C300080239B001A4301239C467078E144FAE6F6
:103C40007078682800D173E180231A437F3B9C463B
:103C5000E144F0E6672800D103E1472800D15AE1AA
:103C6000452800D15AE10492072142460C9B039259
:103C7000073352468B43190002920CC92800009268
:103C800001930C9122003B005946FFF79FFB040073
:103C900082E6C046493900108C27002028E7001032
:103CA0006CE70010B8E7001041900000462800D1F2
:103CB000DBE00492072142460C9B039207335246F5
:103CC0008B43190002920CC92800009201930C91B9
:103CD00022003B005946FFF725F904005CE6631C0F
:103CE000984622003B0059462520A847444653E603
:103CF0000C9B04330D93631C9946920700D422E178
:103D00000C9B2200187859463B00A8474346444480
:103D1000012B00D885E23300B8462E005F4625000F
:103D20004C46994622004346013439002020B047D2
:103D3000AC42F7D12C00BB46350047464E460D9BA2
:103D40000C9329E6DB4B30789846002399460028EF
:103D500000D012E60024AEE66F2800D188E000D83B
:103D60000BE31023782800D1CFE09A430A239C4626
:103D700000230F930A330D9380E05646B100891952
:103D8000490001330E181878303E010030390929F6
:103D9000F4D9B2461E000133994628E60C9B023640
:103DA00002CB8A46C9435046C917084082460C9345
:103DB0003078731C99461AE610231000984311338B
:103DC0001843814680201300C0000340024200D106
:103DD000A9E64B4606930823059353460493102304
:103DE0000393002302930F9B220001931CAB0093CB
:103DF00059463B002800FEF79FFF434604000C9302
:103E0000CAE501235B42C3E60F9B534501D95346E4
:103E10000F930223180010400D90134200D1B7E118
:103E20000D93D1460B1B9A463300A1442E0022006D
:103E30004D460C98B9465F469B4608E04B46390014
:103E4000541CB0475346185D002877D02200954295
:103E5000F4D15B46BB464F46A94635004C461E0092
:103E6000C9E680231B011A43FDE620231A4320E7FD
:103E700008239C4600230F9308330D9380231100E1
:103E8000DB0019401A4200D116E10D239A431000BD
:103E9000802302009B001A401492184200D0C2E115
:103EA000802302005B001A4091460C9A04320F9264
:103EB000184200D0B7E2430600D59FE1030600D4C4
:103EC00019E30C9B1B880993002B00D0FCE11033F5
:103ED0009843002900D1F7E1002399464346059312
:103EE000534604930D9B069003930023D2E0582879
:103EF00008D0622867D102239C4600230F93023327
:103F00000D93BBE720231A43103B9C4600230F93DD
:103F100010330D93B2E780231B011A4320231A4369
:103F2000A1E6C0239B001A43F31C9946B07882E5B2
:103F3000C0231A43F31C9946B0787CE535005E46F1
:103F4000BB464F4657E64346012B00D863E1631E4C
:103F500043449A463300B9462E005F4655469B4679
:103F6000A24622004B46013439002020B047AC4223
:103F7000F7D135005E46BB464F46A14654460C9BE2
:103F80004A46187859463B004444A847D7E6A1461C
:103F90000F9B984500D832E64444E41A3300B846F3
:103FA0002E005F4625004C469946220043460134C8
:103FB00039002020B047AC42F7D12C00BB46350079
:103FC00047464E461BE680231000DB0018401A428D
:103FD00000D10FE1112118008A430D920D9A802320
:103FE00011009B0019408C461A4269D180231100B0
:103FF0005B00194089460C9904310F911A4200D098
:10400000CAE113005B0600D5F0E013001B0600D4E4
:1040100059E20C9B00229B5ED9175A184A4092B273
:10402000D90F0C91002B00D1F9E1100014AA94468D
:1040300042461F23149252466344A84616944D46A6
:104040000400B946B2461F00159201E0202D0FD0A2
:1040500020000A21FEF7D4F901357E193031317084
:1040600020000A21FEF7CCF926000400092EEDD825
:10407000149B4F46A94645469846159B56469A4678
:10408000169C0D9B069343460593534604930A23BF
:1040900003930C9B02934B4601931CAB22000093AD
:1040A00059463B002800FEF747FE0F9B04000C9387
:1040B00072E4C046892C00100C239A431000E7E6F6
:1040C00007220C9B07339343013294469C4462467B
:1040D0000C920CCBD90F0F911100194300D191E034
:1040E000D917139112915140109113995940119180
:1040F00010981199129A139B801A9941109011915E
:1041000014AA0023944642469946149252461F33FD
:104110006344A846B24616944E46109C119DB9467B
:1041200015921F0001E0202E10D0200029000A2245
:104130000023FEF7A3F9013630322B00BA550D00EB
:1041400022000400002BEED1092AECD8149B109415
:10415000119545469846159B4F46B14656469A4698
:10416000169C0D9B069343460593534604930A23DE
:1041700003930F9B02934B4601931CAB22000093C9
:1041800059463B002800FEF7D7FD0400FFF704FC6A
:104190000F9B984500D8C1E18023DB000D93434677
:1041A0000F9A1B199B1A994633002E004D46B946AB
:1041B0005F469B460C9122004B460134390020207B
:1041C000B047AC42F7D143460C9901330F930B78BB
:1041D00035000C935E46BB464F46002B00D10EE5E2
:1041E0000D9B002B00D1F6E4002319E60C9B1B78F5
:1041F0001A0015E710239A430D92EFE60C9B1B78EB
:10420000099361E6002399460028AAD100220023E1
:104210001092119374E70C9B2200187859463B00CA
:10422000A8474C468BE50C9AFA3BFF3B07329A4372
:104230000133994691444B460C931368526815928A
:104240001A4306D11032904300220992002900D06F
:1042500081E06122810600D54122D2B20A9214AADD
:1042600091460A9A00210A3A1492424617925246FF
:1042700018925A460991B3461F311E000F9B4944BC
:10428000BA4619941A950024674698468946159DA2
:1042900016901B920AE03032D2B24B4601341A55C6
:1042A000A8454AD0202C4AD006000D003A00002331
:1042B00030002900FEF7E2F8D2B2092AEBD9149BAC
:1042C0009C466244D2B2E8E76123820600D54123CE
:1042D000DBB20A3B0C93434614A91F228C4615936C
:1042E00053466244A046B2464C461797A94617006B
:1042F000099D0D9E1490169308E03033DBB2013413
:104300003B55B5420ED3202C0CD0050031002800BF
:10431000FEF776F8CBB20929EFD90C9A944663449C
:10432000DBB2ECE7159B4D46A14644469846169BEA
:10433000564614989A46179FD0E5B742B2D9179BB4
:1043400057469846189B5E469A461B9B09949B4687
:104350001698199C1A9D43460593534604930D9B4A
:104360000690039300230293099B05E70F9B984552
:1043700000D914E701330F932DE410231100994362
:104380000D91692800D0BAE080231000DB001840AE
:104390001A4200D122E61DE60C9B1B68DA0F1100C1
:1043A000002B00D18CE0DA179818504014AA9146DF
:1043B00042461F23149252464B44A046A9461697E4
:1043C00004006546B2461F000C91159201E0202DB5
:1043D0000FD020000A21FEF713F801357E19303185
:1043E000317020000A21FEF70BF826000400092E88
:1043F000EDD8149B444698460C9BAC461900159B7F
:1044000056464D469A46169F0D9B0291069343468B
:104410000593534604930A23039363463CE600281E
:1044200000D02EE602E60C9B1B689946002B03D1B8
:1044300010339843002938D16123820600D54123E7
:10444000DBB20A3B0C9343461693534614A91F2232
:104450008C4617932B006244A0464D46B2461897EF
:1044600099461700149C0D9E159008E03033DBB27E
:1044700001343B55B5420ED3202C0CD00500310041
:104480002800FDF7BDFFCBB20929EFD90C9A94465D
:104490006344DBB2ECE7169B149444469846179BA2
:1044A00056464D469A461598189F434605935346DF
:1044B00004930D9B0690039300230293149BEBE55A
:1044C0000028A1D172E70C9B1B68D9175A184A40E3
:1044D000A6E580231000DB0018409C460F901A428E
:1044E0000FD00220030013400F93104219D0002375
:1044F000A1460F934CE50C9B1B680993E4E40A006A
:1045000034E40223180010400D90134200D03EE521
:104510004346002B00D042E6FFF771FB01330F93B7
:104520007FE463460D93F3E70EB4012230B584B007
:1045300007AC08CC064D01000094280052420394B9
:10454000FFF702FA04B030BC08BC03B01847C046FD
:10455000812C001010B50C0084B00394012402A932
:1045600002900093034813006242FFF7EDF904B094
:1045700010BDC046152F00100FB430B50C4985B0E2
:1045800008AA08CA0D680392002D0CD000920122DF
:10459000084C5242200002A9A847012005B030BCB7
:1045A00008BC04B01847180000F0EAFA0020F5E74C
:1045B0008C270020052F001010B5094A030014684D
:1045C00084B0002C08D0012200910648524203A971
:1045D000A047012004B010BD00F0D2FA0020F9E796
:1045E0008C270020052F001000BEFDE7094A0300BC
:1045F0001068002805D00849C3188B4207D81360FB
:10460000704706480449C31810608B42F7D901204F
:104610004042F5E78823002000000420FC28002009
:10462000030010B508001100002B05D1044B1A68D7
:104630005B6800F071F910BD01204042FBE7C04605
:10464000C0E600100300013B10B508001400012B68
:1046500006D801230022210000F0E0F8200010BD60
:1046600001204042FBE7C046012040427047C0465F
:10467000012040427047C046012040427047C0467A
:104680000300022200209A424041704710B5FFF714
:10469000ABFFC04630B50D0083B01900002A0BD027
:1046A000074B084C0192009302002B002000FFF7FB
:1046B00063FF0120FFF798FF034B1A00F1E7C046A4
:1046C000D8E20010E8E2001000DB001070B5FDF742
:1046D0004BFD074D074EB54209D20024013E761B23
:1046E000B60808CD984723000134B342F9D170BD14
:1046F00014DA00101CDA0010030010B508001100D5
:104700001B68984710BDC046F0B5C64600B5437D4E
:1047100007000C001600002B46D0002A17DD0B788E
:104720000A2B24D000239846012E13D001252900FE
:10473000635C01350A2B26D0B542F8D1464509DC29
:10474000A419013C23780D3B5A4253413B7580BC70
:10475000B846F0BD4346E018A419F11A013C3B6885
:10476000984723780D3B5A4253413B75EFE7037D51
:10477000002BD7D102210F483B689847012EDFD08C
:1047800001239846D2E7631E5B5C0D2BD4D088458D
:1047900004DA4346C91AE0183B68984702210548E5
:1047A0003B68A8469847C7E7036811002000984770
:1047B000CDE7C04618E90010F0B5C6460B68060004
:1047C0000C0000B5802B06D05A1C2260E41826711C
:1047D00080BCB846F0BD0F4B1D68002D16D00B1DD8
:1047E00098460D4F02E02D69002D0FD02B68002B4D
:1047F000F9D03B68002B01D0AB42F4D128004146F0
:104800002268FFF781FF2D69002DEFD101220023DF
:10481000DBE7C0467823002084230020F0B545461E
:10482000DE464E465746E0B583B091461C008046B2
:104830000D00FDF75FFA0023304A12184B41002BA0
:1048400002DA01222E4B52422E4908008A4609F014
:10485000ABF807006B1C03D1404603F08BFC05004E
:10486000002C27D0284E294B1C68002C18D04B4612
:10487000002B21D1264B994602E02469002C0FD051
:104880002368002BF9D04B461B68002B01D09C42BB
:10489000F3D120002A004146B0472469002CEFD113
:1048A000002F26D1280003B0F0BCBB46B246A94673
:1048B000A046F0BD174ED6E7154B99460A239B46F6
:1048C00002E02469002CEBD02368002BF9D04B4682
:1048D0001B68002B01D0A342F3D12A0041462000DF
:1048E000B0476B465A462000DA71D91D0122B04705
:1048F000E7E7504609F010F8D4E7C04640420F0001
:10490000FFFFFF7F78180020094700107823002060
:1049100084230020F9460010F8B557464E46454618
:10492000DE4698461A4BE0B59B461A4B07000E0030
:1049300091469A46184D5B461C68002C03D115E041
:104940002469002C12D02B68002B01D0A342F7D190
:10495000A368002BF4D03100380098470028EFDD21
:10496000F0BCBB46B246A946A046F8BD53465B6ABA
:10497000984508D85246926A4A4502D302204042DE
:10498000EEE79845FAD101200021FDF7BDF9D2E705
:104990007823002000400540842300200A4A136841
:1049A000002B05D10CE01A001B691032002B07D038
:1049B0008342F8D1002902D118691060196170474B
:1049C0000029FCD01060FAE77823002010B500F031
:1049D0007DFB10BDF0B5CE464746040080B583B0E0
:1049E000FDF788F92600002736184F41002F02DA1C
:1049F00001261A4F76421A4B1A4D994601AB98463A
:104A00004B461C68002C03D116E02469002C13D0FF
:104A10002B68002B01D09C42F7D1A368002BF4D067
:104A20000121404698470028EFDD4346187803B03F
:104A3000C0BCB946B046F0BD0B4B5A6A974207D886
:104A40009B6AB34202D302204042F0E79742FAD178
:104A500001200021FDF758F9D2E7C046FFFFFF7F94
:104A6000782300208423002000400540F0B547460D
:104A7000CE461A4B80B51A685B689146984683B05B
:104A8000174F184D01AE3C68002C03D115E0246986
:104A9000002C12D02B68002B01D09C42F7D1A368C8
:104AA000002BF4D00121300098470028EFDD30784A
:104AB00003B0C0BCB946B046F0BD0B4B5A6A904536
:104AC00007D89B6A4B4502D302204042F0E790454D
:104AD000FAD101200021FDF717F9D4E7C0E6001054
:104AE000782300208423002000400540F0B5CE4606
:104AF000474680B583B06B460600DD1D2870FDF784
:104B0000F9F80023194A12184B41002B02DA01224E
:104B1000174B524217490800884608F045FF164BCC
:104B200081461C68002C14D0144F02E02469002C2C
:104B30000FD02368002BF9D03B68002B01D09C429A
:104B4000F4D1200001222900FFF7DEFD2469002CAA
:104B5000EFD14B46002B05D1300003B0C0BCB946A5
:104B6000B046F0BD404608F0D7FEF5E740420F00E2
:104B7000FFFFFF7F78180020782300208423002087
:104B800070B5040003F0F6FA0123010005000122CC
:104B90002000FFF743FE084B1C68002C06D063681A
:104BA000002B05D098472469002CF8D1280070BD4F
:104BB0002469002CF3D1F9E778230020F0B5CE4624
:104BC000474680B5A3B004000D00FDF793F800231D
:104BD000274A12184B41002B02DA0122254B524280
:104BE000254E300008F0E0FE00232200019307006C
:104BF0002B00224801A9FFF7ADFC214B80469946C6
:104C00001C68019B002B1AD0002C2FD01D4D02E0F8
:104C10002469002C0FD02368002BF9D02B68002BBF
:104C200001D0A342F4D12000019A02A9FFF76CFD44
:104C30002469002CEFD14B461C6800230193002C03
:104C400006D06368002B0BD098472469002CF8D15C
:104C5000002F07D1404623B0C0BCB946B046F0BDD6
:104C60002469ECE7300008F057FEF3E70194EFE722
:104C700040420F00FFFFFF7F78180020B947001067
:104C800078230020842300200FB400B583B004A94A
:104C900001C90191FFF792FF03B008BC04B01847A7
:104CA0007047C0460022014B1A707047F728002059
:104CB0004B790020FF2B0BD18B79002B08D1CB79BE
:104CC000012B05D1082A03D9024B8A7809301A70C2
:104CD0007047C046F72800200120704710B5012911
:104CE00013D112495379107909781B02034300202C
:104CF000994200D010BD5378012B08D0022BF9D176
:104D0000642200210020FDF779F90120F2E7D37831
:104D100091781B021943480ADB0501D40120404267
:104D20007F238A05D20F1940FDF7F0F9F7280020FC
:104D300000487047E4E9001070B505001400012038
:104D4000012909D153780020012B05D1637912790B
:104D50001B021343072B00D070BD21002800024A1C
:104D60009F3301F055FAF7E73CE900100123037087
:104D7000004870471CE900104B780A781B02134367
:104D80008A7810B512041A43CB781B061343962277
:104D9000D200934200D010BD0022012011004042F9
:104DA000FDF7B4F9024B1860024B19607047C0461A
:104DB000182300201C23002010B5024B1878FCF7A4
:104DC000F7F910BDF8280020154B70B51A68002AB5
:104DD00022D0EFF3108172B610680028FCD0BFF328
:104DE0005F8F00200F4A596010701B68BFF35F8F00
:104DF000186081F31088002400250B4E3078FCF7F2
:104E0000CBF9002804D1002400252900200070BD22
:104E10003078FCF7CDF9F8E7FA240025A400ECE798
:104E2000B0270020F9280020F828002070B50400E1
:104E300000200E0001F00AFB002834D0002001F011
:104E40001BFB00282FD0FCF755FF0023174A121830
:104E50004B41002B16DB164D280008F0A5FD00285D
:104E600021D0002001F0F2FA00280FD1012000210A
:104E7000404200F001FD03246442280008F04CFD8C
:104E8000200070BD01220B4B5242E4E7002001F0EC
:104E9000F3FA0028EAD021003200002001F0F6FAEF
:104EA000041EEAD1E7E703246442E9E740420F0029
:104EB000D8280020FFFFFF7F10B5FCF71BFF002361
:104EC0000D4A12184B41002B02DA01220B4B5242C1
:104ED0000B4C200008F068FD00280CD001200021B8
:104EE000404200F0C9FC002001F014FB0028F5D17D
:104EF000200008F011FD10BD40420F00FFFFFF7FB2
:104F0000D8280020F8B5DE46574680B505000C00CD
:104F1000FCF7F0FE0023364A12184B41002B02DA50
:104F20000122344B5242344908008A4608F03CFDC5
:104F3000002803D1C0BCBB46B246F8BD002001F03A
:104F400085FA00284AD00026002C43DD2B4B9B46D7
:104F500014E0A919002001F017FB0700012000212F
:104F6000404200F089FC002001F0D4FAFCF7C2FEB8
:104F7000224BF61918605960B4422BDD002001F075
:104F800023FBA71B0200B84200DD3A00002AE0D153
:104F900001200021404200F06FFC002001F0BAFA2D
:104FA000002001F053FA002814D0002001F00CFB7F
:104FB0000028E1D1FCF79EFE5B460F001A685B6893
:104FC000002184460E4812184B419F4202D8D3D18B
:104FD0009445D1D9504608F09FFCABE70020002152
:104FE000064B18605960504608F096FCA2E7C04690
:104FF00040420F00FFFFFF7FD8280020001A00204A
:1050000020A1070030B52A4C85B00021200008F00F
:10501000A3FC00281CD1274B1A68002A16D0EFF3F6
:10502000108172B610680028FCD0BFF35F8F012496
:105030002148596002781B68D2B20470BFF35F8FB9
:105040000020186081F31088002A17D005B030BD09
:1050500001200021404200F00FFC002001F00CFA7A
:105060000500200008F058FC002DEFD0134B1B6802
:10507000002BEBD0124A10689847E7E7FCF7A2FC38
:105080000400FCF737FEFA220023920012184B416D
:10509000002B02DA01220B4B524201210291002126
:1050A0000191094920000091FCF790FCCEE7C04631
:1050B000D8280020B0270020F9280020182300203D
:1050C0001C230020FFFFFF7FC94D0010D02310B527
:1050D0001B0684B01C68FCF775FCFCF771FDA04250
:1050E00002D0002004B010BD294B002100201B7805
:1050F00001F05EFD27480368002B45D00120FCF736
:10510000EFF9FF23244C254920701840FCF76AF87A
:1051100020780121FCF72EF80520FCF751F8002833
:1051200024D1082200211E48FDF79EFDFCF74AFC11
:105130000400FCF7DFFDFA220023920012184B4115
:10514000002B02DA0122174B524201210291002169
:105150000191154920000091FCF738FC0028C0DBC4
:1051600012480121FFF71AFC0120BBE70120FBF7E1
:10517000CFFF0B4B01001800FCF714FA00220520AA
:105180000B49FCF759F8EBE7FCF7F0F9B6E7C04636
:105190007C5E0110D8280020F8280020055000105F
:1051A000B0270020FFFFFF7FC94D001070110020C5
:1051B000B94D00100048704780EA00100048704761
:1051C0002CEA001010B5040017480378002B20D0FB
:1051D000002C06D1154B16484380063BFF3B03804D
:1051E00010BD052C1DD8134BA400E0581249012313
:1051F000013804E001330A800231142B0DD0C25C67
:10520000002AF7D1C022DBB25B00920008481343AA
:10521000E5E7112100F01AF8DAE7CA2304489B00F9
:10522000DDE70020DCE7C046E0280020090400009C
:105230005023002014EA00105223002010B5024829
:1052400000F0D8F810BDC046C827002030B54B1E6E
:10525000012900D1A7E0664A11780D092C003034ED
:105260009F2900D9A2E00470012B00D1BEE00F21DC
:10527000147821400C003034092900D998E044709A
:10528000022B00D1B2E054782509290030319F2C3F
:1052900000D990E08170032B00D1A7E00F212140BD
:1052A0000C003034092900D987E0C470042B00D1E8
:1052B0009CE094782509290030319F2C00D97FE0AB
:1052C0000171052B00D191E00F2121400C003034F9
:1052D000092900D976E04471062B00D186E0D47804
:1052E0002509290030319F2C00D96EE08171072BF0
:1052F00000D17BE00F2121400C003034092966D811
:10530000C471082B00D171E01479250929003031CE
:105310009F2C5FD80172092B68D00F2121400C000F
:105320003034092958D844720A2B5FD054792509A2
:10533000290030319F2C52D881720B2B56D00F216F
:1053400021400C00303409294BD8C4720C2B4DD0AD
:1053500094792509290030319F2C00D90731017338
:105360000D2B43D00F2121400C003034092901D9E5
:1053700037310C0044730E2B38D0D1790C09220040
:1053800030329F2900D9073282730F2B2ED00F2283
:105390000A4011003731092A01D830321100C17397
:1053A000102B23D010300023037030BD07345AE790
:1053B00037310C0063E707316CE737310C0074E7D5
:1053C00007317DE737310C0085E707318EE737314C
:1053D0000C0095E707319DE737310C00A3E7073153
:1053E000AAE737310C00C4720C2BB1D1C018DAE730
:1053F000C827002010B588B004000D22002168469F
:10540000FDF732FC0D22002104A8FDF72DFC4B23F3
:105410006A466846137004A90D2208F06DFA15213A
:10542000082220006944FDF725FC08B010BDC046E5
:10543000F8B500F047F90C23194DFF22AB670520A2
:105440001849FBF7F9FE184C402200212000FDF717
:105450000BFC4027002301262121144A6670278374
:10546000A260136063545F31618445396354104A0C
:1054700010496360E2602787A1620B606362E262A9
:1054800008F05AFA80239B052E64EB6490230A4AA5
:105490000120EA508022094B5202DA64F8BDC0466E
:1054A00000001150450500208C230020840010507E
:1054B000000110508000105010D001000020115049
:1054C00010B501210520FBF755FE10BD10B50022D7
:1054D0000021024800F016F910BDC046AC230020A0
:1054E000044B1970002904D080219023024A8902BC
:1054F000D1507047F2280020002011500B785B0635
:1055000002D14B78052B00D070478A78014B1A6086
:10551000FAE7C04600001150F0B5C646C87800B59D
:105520008007830F1800012B60D08F780A794B79A0
:105530007F213940FC091B024E001343334D3219C1
:105540005201AA18977001276740577000275B0522
:105550005B0DD7701383D076B846CA00012C32D0C9
:105560002B4FBC468F016244BC46AC446746BA60D0
:1055700047461760002932D0264AC9009046624645
:10558000414451603F223F339343022837D02249A0
:1055900037190A687F01D3180B602049EF19FA60A8
:1055A0008B422ED836197601AD19EB7E1C499B062D
:1055B0004A4013438022120613436A681360012095
:1055C00080BCB846F0BD174FBC468F016244BC4654
:1055D000AC446746BA6247461760002908D10023E9
:1055E00064012C196360104BE360E8E70020E7E7F3
:1055F0000B4AC9009046624641445162C2E75B00D3
:10560000C5E7FCF7ABFDFA68CCE7C0468C23002069
:10561000840010500400105094270020FF0F1050F9
:1056200000001050800010500001105010B508F01C
:1056300083F910BD10B57F200C0020404000E40924
:10564000110000191A00034B4001C01800F05AF86D
:10565000012010BD8C2300207F23180000B50840D6
:1056600083B00B4204D14B424B41084A013393664D
:105670008022C9094000064B401840010021C01893
:10568000120108F0A1F903B000BDC046002011507E
:105690008C2300207F22130010B50B400A4200D15A
:1056A00010BDC9095B005B1804485B01C0180023EA
:1056B00000220349C37008F087F9F1E78C2300202A
:1056C000FFF7FFFF80220A4B520410B51A60094B06
:1056D00009491A6010000B689843FBD18022002111
:1056E00052010648FDF7C0FA0922054B5A6710BD62
:1056F00000E0004000F0004008C0004000001050F2
:1057000000001150002310B5C382013382828376DA
:105710000161040008F040F9002804D080219023A2
:10572000074A8902D150200008F02EF9002802D043
:105730000123237710BD200008F03EF9FAE7C046A8
:10574000002011507047C0467047C0460020704787
:10575000002070477047C0467047C0467047C0463B
:105760007047C046024B5878431E9841C0B27047FC
:10577000301E0020024B18784007C00F7047C0460B
:10578000301E0020F0B5D6464F464646C0B52F4BDA
:1057900007009A461B780E00FF2B50D1002941D0FC
:1057A000002154222A48FDF75FFA0022294C2A4B97
:1057B00020001A70FBF7DAFE284B1C60284C2000F2
:1057C000143CFBF7E1FE200001F0FAFD254B264DCD
:1057D0001C60264B002B04D02800FFF7C7FA244B8F
:1057E00018602449002489462149002388462A78E4
:1057F00010E043461B6862019B18002B12D05B68C7
:10580000002B0FD098472A780134E4B2511C2300B2
:10581000A14209DBA242ECD89B1A5B014B445B68B6
:10582000002BEFD100200BE05346310038001F70F1
:10583000FFF7FEFD0028F5D03800FFF741FE0120FC
:10584000E0BCBA46B146A846F0BDC046A41100204F
:10585000301E0020281E0020F3280020841E002077
:105860009C110020881E0020F12800206D4D0010A2
:10587000801C00203CEB0010F0B5DE4657464E463B
:105880004546E0B5C84B91B002931B78FF2B00D181
:105890003EE1C64BC64E9B465F46C64B0DAC0193E0
:1058A000C54B009335686A69EFF3108172B61368CF
:1058B000002BFCD0BFF35F8FA9612800210001F00D
:1058C000AFFB6A69AB69BFF35F8F0021116083F39F
:1058D0001088002800D11BE16378082BE2D89B00D8
:1058E000FB589F466368002BDCD0A0689847D9E737
:1058F0007F222179AF4D0A405300EB189846C80922
:10590000804440460123303005799D430571057977
:1059100003339D430571002A00D100E14346A74AA5
:105920001B7D1278934200D3EFE0A54A5B01156816
:10593000ED18002D00D1EBE0A36862792078AD6905
:10594000A847AFE79F4A1378002B00D1E0E0137817
:10595000013BDBB213701378002BA3D10122954DCC
:1059600001212B78042013432B703423EA5C8A43F3
:10597000EA54EA5C8243EA540133EA5C8A43EA541B
:10598000EA5C8243EA54237800209B4600F09EFCA8
:10599000602223791A40602A00D1EFE0402A00D12A
:1059A000F5E0DB06DB0E012B00D113E1022B00D169
:1059B000C7E0002B00D0E1E0202A00D11CE2002A41
:1059C00000D0DBE06379092B00D9D7E07E4A9B0049
:1059D000D3589F46774D2B78DB0700D462E7FFF75B
:1059E000BFFE5FE7019BDB78DB0700D45AE7606806
:1059F000FFF7AAFE56E76F4D2B78DB0700D451E77F
:105A000028780007C00FFFF7A9FE4BE723786A4903
:105A100099468B46694B6A4998468A4639001A78F6
:105A200047460023B04600254E46894610E05346BF
:105A30001B686A019B18002B00D176E0DB68300000
:105A400098473A780135EDB2511C2B008D4244DC69
:105A50009542ECD39B1A5B015B44EFE723785849EE
:105A60009946564B8A4698463100BB464E461A78B0
:105A700000250023474689460FE053461B686A010C
:105A80009B18002B55D0DB68300098473A780135D9
:105A9000EDB2511C2B008D4207DC9542EDD39B1AD1
:105AA000009A5B0194466344EDE7019D5422002176
:105AB0002800FDF7D9F81022FF214448FDF7D4F85B
:105AC00028002022FF2114304E465F46FDF7CCF817
:105AD00000F0F2FBFFF740FEE4E6364D54220021D1
