:020000041000EA
:1000000000B5324B212058609868022188439860DF
:10001000D860186158612E4B002199600221596106
:100020000121F02299502B49196001219960352056
:1000300000F044F80222904214D00621196600F024
:1000400034F8196E01211966002018661A6600F04E
:100050002CF8196E196E196E052000F02FF8012189
:100060000842F9D1002199601B49196000215960AB
:100070001A491B48016001219960EB211966A021F2
:10008000196600F012F800219960164914480160C1
:100090000121996001BC002800D000471248134993
:1000A000086003C880F30888084703B5996A0420EC
:1000B0000142FBD001200142F8D103BD02B5186610
:1000C0001866FFF7F2FF186E186E02BD00000240BE
:1000D000000000180000070000035F00212200005C
:1000E000F4000018222000A00001001008ED00E03C
:1000F00000000000000000000000000074B24E7A12
:1001000000200420F7010010CB010010CD010010E9
:10011000C9010010C9010010C9010010C901001077
:10012000C9010010C9010010C9010010CF01001061
:10013000C9010010C9010010D1010010D301001045
:10014000C1010010C1010010C1010010C101001067
:10015000C1010010C1010010C1010010C101001057
:10016000C1010010C1010010C1010010C101001047
:10017000C1010010C1010010C1010010C101001037
:10018000C1010010C1010010C1010010C101001027
:10019000C1010010C1010010C1010010C101001017
:1001A000C1010010C1010010C1010010C101001007
:1001B000C1010010C1010010C1010010C1010010F7
:1001C000EFF30580103800BE00BE00BE00BE00BECA
:1001D00000BE00BEF2EB88715C6501108065011005
:1001E0003802001090A31AE71E481F49086006C88D
:1001F00081F3088810471D480068002801D019487D
:10020000F3E70DA40ECC002902D000F012F8F9E7B4
:100210001749184A002000E001C19142FCD116495B
:100220008847164988471649884700BEFDE701C937
:1002300001C29A42FBD3704780650110C0000020C4
:1002400090180020507D01100000042000000420C0
:10025000507D011000100420001004200000000058
:10026000704700000000000008ED00E0000000D032
:100270009018002010290020354A00107D0B001036
:10028000F5490010F8B5C04606480749091A8B1011
:10029000C90FC91810B5491003D0044B002B00D06A
:1002A000984710BD90180020901800200000000012
:1002B000054B10B5002B03D00449054800E000BFF2
:1002C000FFF7E2FF10BDC04600000000A827002095
:1002D00084DD0010D0238022F0B51B0683B092028B
:1002E0009A616B46DD1D80230122290024482B7072
:1002F0000DF0F6FC234E370034001137237801222D
:1003000029001F482B7001340DF0EAFCBC42F5D1E6
:10031000D02380221B0692025A619A614023012257
:10032000290017482B700DF0DBFC002401232A0064
:10033000002113482C700DF09BFC2B7832789A42E8
:1003400009D10136BE42F1D1D02380221B06920290
:100350005A6103B0F0BDD02380221B0692020A48E6
:100360005A6104F0C1FD202404F034FDA043C0B262
:100370005128F9D100220021002001F0F3FFF3E71A
:1003800000C00340E010002088DD00100F23F0B50E
:10039000DE4657464E4645461A000121E0B5AD4DB2
:1003A00087B02F788B463A4000923A0911406A781C
:1003B000894692461A4053469E069B090592019330
:1003C0005946AB78A4489A09DB090493F0231140FD
:1003D00003916C791B0324041C402B79EA781B02DF
:1003E00013435A461C432B7CB60F9B081A400292BB
:1003F00004F07AFD012398463B4203D05246134253
:1004000000D1A2E102233B4203D05246134200D165
:10041000B1E104233B4203D05246134200D1B2E182
:10042000009BDB1003D0059BDB1000D195E14B4610
:10043000002B00D1F5E0032E00D1FAE0019B032B45
:1004400000D100E1039B002B03D0049B002B00D1C3
:100450008BE1E3179B46002C00D1DCE07F4B9C42F4
:1004600056DD7F4B9C4200DD0EE2029B002B56D0F6
:10047000009B002B00D125E24B46002B00D1F1E17F
:100480005B462200E821774802F0ACF9764B010088
:10049000984200D80EE2EB79DB0952D1731EDBB231
:1004A0009B462B785B0650D5009B002B00D0AFE11C
:1004B0005B46012B00D87FE0019B022B51D16B4B97
:1004C0009C4200DD67E2029B002B00D084E0049B8D
:1004D000002B00D086E04B46002B00D161E1012EBD
:1004E00002D0022E00D18BE1614B9C4202DD6148BB
:1004F00004F0FAFC4346002B58D05F4804F0F4FCAB
:10050000404607B0F0BCBB46B246A946A046F0BD87
:1005100021005A4804F06CFD029B002BA8D15B46D9
:100520002200E8214F4802F05DF94F4B010098424C
:1005300000D806E1EB79DB0900D1F1E04B46002B56
:10054000ACD04F4804F0D0FCF1E05B46012B00D862
:10055000B2E0019B022B00D175E1009B002B00D083
:1005600062E1029B002B3AD0019B334334D1049BC0
:10057000002B0CD0039B002B09D0424B1968424B37
:10058000994237DD4B46002B00D1BAE0ACE74B4631
:10059000002BA9D1009B002BA6D03C4804F0A4FC62
:1005A000334B9C4202DD334804F09EFC384804F093
:1005B0009BFC00239846A3E7364804F095FC019B7A
:1005C000012E00D14EE2022B00D13AE1029B002B1A
:1005D00000D1D1E1002398462F4804F085FC049B0C
:1005E000002B0AD0039B002B07D0264B1968264B03
:1005F000994202DC294804F0FBFC4B46002B7AD0E0
:10060000012E00D06DE70C233B4200D16CE724485B
:1006100004F06AFC68E7234804F066FC002398466F
:1006200023E7214804F060FC00239846032E00D005
:1006300004E703211D4804F0DBFC00239846019BDE
:10064000032B00D0FEE60321194804F0D1FC00235F
:100650009846F7E6E0100020B4DD00100F270000F8
:1006600040420F000010A5D4FF2C310150C3000000
:10067000A086010088E30010C4E30010C0DE001073
:1006800020E00010D8100020FF117A0008E30010CD
:10069000D4E30010A8E0001010E2001054E20010B3
:1006A00098E20010A4DE0010FCDD00101CDE00103B
:1006B00048DE00100023984603233B40032B00D064
:1006C0001FE152461340032B7DD1019B012E00D127
:1006D00048E1022B00D108E2029B002B00D07BE70F
:1006E000049B002B57D0039B002B00D07DE74B468B
:1006F000002B00D0F5E6019B002B52D1012E00D13A
:10070000EBE0022E00D045E7C04B9C4200DD67E1E4
:10071000009B002B00D1EDE6BD4804F0E5FB45E76A
:100720004B46002B00D0B9E6BA4804F0DDFB0023AD
:100730009846B3E622005B46E821B74802F052F83B
:100740000100B64804F054FCF4E601220121B4484B
:1007500004F04EFC0023984654E604220421B048DD
:1007600004F046FC0023984661E6AE4804F0BCFB6A
:10077000002398466DE602220221A94804F038FCC5
:100780000023984645E603220321A54804F030FCE7
:100790000023984644E64B46002B31D1019B002BA9
:1007A000AFD0A14804F0A0FB012E00D1B6E0022E8C
:1007B00000D174E1009B002B00D0EEE69B4B9C42E5
:1007C00000DCF3E6EFE69A4804F08EFB019B012E75
:1007D00000D10DE1022B00D187E0059B002B27D033
:1007E000029B002B00D0F5E600239846F7E64B4627
:1007F000002B00D196E1012E00D19AE0002398460B
:10080000824B9C4200DC75E68A4804F06DFB6BE687
:10081000894804F069FB5B46012B00D84AE7019B3D
:10082000022B62D000239846059B002B00D098E64F
:10083000824804F059FB0023984692E6804804F071
:1008400053FB002398467F4B9C4277DC009B002B98
:1008500000D138E6059B002BEAD0029B002B00D08C
:10086000BAE6BCE6784804F03FFB5B462200E8218C
:10087000694801F0B7FF754B984200D817E1EB7952
:10088000DB0900D053E74FE72100714804F0B0FBCB
:10089000029B002B00D14DE7009B002B52D04B4612
:1008A000002B00D114E122005B46E8215A4801F0F8
:1008B00099FF0100594804F09BFBEB79DB0900D05C
:1008C0003FE6EBE5634804F00FFB00239846D3E5D1
:1008D0004B46002B00D0DFE098460C233B4200D172
:1008E00058E65D4804F000FB54E6564B9C426DDC34
:1008F00000239846059B002BAFD1504804F0F4FA32
:100900006EE74B4804F0F0FA019B012E47D0022B12
:1009100097D0009B002B00D05FE757E60C233B42AB
:1009200000D147E74C4804F0DFFA009B002B00D0D1
:1009300033E600239846D7E500239846474804F05D
:10094000D3FA83E7434804F0CFFA4B46002B89D013
:100950005B462200E821304801F044FF00230100FB
:100960009846A7E7002B00D177E7022B00D1DFE004
:100970003B4804F0B9FA70E7049B002B00D136E73E
:10098000039B002B00D0CAE04B46002B00D1DFE0D8
:1009900000239846A5E5314804F0A6FA93E5002B1C
:1009A00062D1009B002B00D08BE0029B002B00D07B
:1009B00010E6049B002B8BD0039B002B00D0AEE0F5
:1009C0004B46002B68D10023984686E7234804F065
:1009D0008BFA00239846059B002B00D03DE78CE75F
:1009E000144804F081FA009B002B00D0D5E57BE58C
:1009F000002B66D0022B00D187E0194804F074FA6E
:100A0000059B002B00D0EBE677E7C04660EA0000CC
:100A100008E30010E4DF00100010A5D4A0DF0010F0
:100A2000CCDD00106CDE0010E0E20010A0860100BA
:100A3000A8E0001034E3001070E0001098E100100E
:100A4000F8E0001050C3000070DF0010FF2C3101EF
:100A50000CDF00103CDF001098E20010D0E1001025
:100A600050E10010002BA0D0019B022B00D1E5E645
:100A7000394804F039FA009B002BC1D1029B002BAE
:100A800000D0A7E5049B002B5DD0039B002B46D133
:100A90004B46002B00D184E600239846B3E52F4B4C
:100AA0009C422ADC009B002B00D17FE534E62C4BD6
:100AB0000100180004F09CFAEB79DB0900D036E65F
:100AC00032E6059B002B00D117E700239846C4E6C9
:100AD000244804F009FA5B462200E821224801F08C
:100AE00081FE0023010098462BE6204B9C4200DC4F
:100AF000B3E61F4804F0F8F9AFE61E4804F0F4F935
:100B0000009B002B00D048E513E71B4804F0ECF9EC
:100B1000164B9C4200DD0FE7002398469AE600231F
:100B2000984662E5019B9846002B00D1E9E538E63E
:100B3000114804F0D9F90D4B9C4200DC8DE60C48BD
:100B400004F0D2F986E64B46002B00D129E6F0E608
:100B500000239846CFE5C04650E1001060EA00004F
:100B6000A0DF001070DF00100010A5D450C30000FB
:100B7000D0E1001034E30010F8E00010F0B5DE46DC
:100B800057464E464546E0B5B1B004F0D3F804F000
:100B900021F9E64B9B46E64B0393E64B0493E64B69
:100BA0000693E64B0793E64B0893E64B0993E64B17
:100BB0000A93E64B0B93E64B0C93E64B0D93E64BF7
:100BC0000193E64B0293E64B0593E64B984626AB22
:100BD000DC1DE54B9A46E54B0F93E54B1C93E54B2B
:100BE000E54E1093E54B25969946E54B0E93E54B64
:100BF0002493E54B1193E54B1793E54B1893E54B85
:100C00001993E54B1A93E54B1B93E54B1F93E54B6B
:100C10002093E54B2193E54B2293E54B2393E54B42
:100C20001393E54BE54F1493E54B1593E54B169362
:100C3000E54B1293E54B1D93E54B1E930023289340
:100C40002C93584604F050F9039804F04DF9049899
:100C500004F04AF9069804F047F9079804F044F9BB
:100C6000089804F041F9099804F03EF90A9804F054
:100C70003BF90B9804F038F90C9804F035F90D980D
:100C800004F032F9019804F02FF9029804F02CF9DD
:100C9000059804F029F9404604F0AAF921005046CD
:100CA00007F036FB2378313BDBB2402B03D80F9A99
:100CB0009B00D3589F461E9804F016F9C1E71D9873
:100CC00004F012F9FFF762FB0028B7D0C14F129B66
:100CD0003800196806F06CFD0222D0258026BE4936
:100CE0007B680A60396813408532514048320A40B7
:100CF000BA4912200A60BA4A0121136000F0F2FAE0
:100D00000121132000F0EEFA0121102000F0EAFA90
:100D100011202D06B60200F0FFFA0521112000F087
:100D2000E1FA6E6214206E6100F0F6FA05211420DB
:100D300000F0D8FA80235B03AB62302326AAAE61B1
:100D4000380013762CA901220CF0CAFF0021642080
:100D50006E6101F08DF9FFF7BDFAA24804F0C4F806
:100D6000A14804F0C1F8182326AAAE613800137612
:100D70002CA901220CF0B4FF6E616420002101F067
:100D800077F91022002128A802F022F91022002170
:100D90002CA802F01DF9954E0025B046944B259FD6
:100DA0000193944B9B46944B0393D02636064346BF
:100DB0001B78002B00D04DE2002003F0BFFF43382A
:100DC000C0B22F2800D98FE1019B80001B589F469D
:100DD000169804F00DF948462CA907F099FA2C9BB7
:100DE000129A13602DE7149804F002F928A94846D6
:100DF00007F08EFA0421289B327C9B000B408A432B
:100E0000134333741DE7159804F06EF8002529008C
:100E1000725D3800013504F0EBF8112DF7D110E7C1
:100E2000139804F0E5F8484628A907F071FA7F22E4
:100E3000F3791340289AD2011343F37101E7239801
:100E400004F0D6F82CA9484607F062FA00232C9A41
:100E5000E8216A4801F0C6FC0F210203130D33712B
:100E60007379120F8B431343F0707371E9E6229884
:100E700004F0BEF8484628A907F04AFA7F22B37862
:100E80001340289AD2011343B370DAE6219804F094
:100E9000AFF828A9484607F03BFA4021289BB278D2
:100EA0009B010B408A431343B370CAE6209804F0B9
:100EB0009FF8484628A907F02BFA289BDBB2022BA3
:100EC00000D104E2043B5A425341DB013F227178D6
:100ED0000A4013437370B4E6189804F005F81998A3
:100EE00004F002F81A9803F0FFFF1B9803F0FCFFD0
:100EF0001F9804F07DF826AB991D504607F008FABC
:100F000026AB9B79202219009143442900D1E0E1CE
:100F1000572B00D1DFE1773B5A4253415B0130212F
:100F200072788A43134373708BE6C04604E4001062
:100F300020E4001040E4001060E4001080E40010A1
:100F4000A0E40010B8E40010D4E40010F0E40010B5
:100F500010E5001048E5001068E5001088E5001075
:100F60009CE50010ACE50010BCE50010FCEB0010A7
:100F7000C0E50010E0E50010E0100020F8E50010EA
:100F8000C7270020FCE5001020E600103CE600101A
:100F900060E6001078E6001084E6001098E6001085
:100FA000A8E60010B8E60010D0E60010F0E6001049
:100FB00010E700104CE700108CE70010C8E70010A5
:100FC000B0E70010DCE70010D810002014E8001093
:100FD00030E8001000C0034004F0034000D003409C
:100FE00004E0034040E8001068E8001009290020F0
:100FF00000ED0010DC100020C0E800100010A5D4A7
:10100000249803F071FF002501352900119803F0A1
:10101000EFFF484628A907F07BF9289B0E9A535505
:10102000042DF1D110000F22717891434278531EA4
:101030009A41D3B28278002A01D002221343A74AF0
:101040009278002A01D004221343A44AD278002ABD
:1010500001D0082213430B437370F2E51C9803F090
:1010600043FF002501352900109803F0C1FF4846D1
:1010700028A907F04DF9289B0E9A5355042DF1D15C
:1010800010000F22317891434278531E9A41D3B217
:101090008278002A01D002221343904A9278002AD3
:1010A00001D0042213438D4AD278002A01D00822AD
:1010B00013430B433370C4E5179803F099FF28A935
:1010C000484607F025F91021289B32781B010B4078
:1010D0008A4313433370B4E55B4640221D703B786E
:1010E00013433B70FFF7F6F85B461B78002B00D1EB
:1010F0005DE68022520373681342FCD180239B0279
:10110000B361682301222370210075480CF0E8FDCB
:1011100028AB99462CAB9A465B46BB46029301230B
:10112000220000216E4825700CF0A2FD27780123D3
:10113000220000216A4825700CF09AFD23783F04B4
:101140001B021F43220001230021654825700CF07B
:101150008FFD4A46237800213B4308C29146012374
:1011600022005F4825700CF083FD277801232200C0
:1011700000215B4825700CF07BFD23783F041B02A7
:1011800022001F4300210123554825700CF070FDFB
:10119000524623783B4308C22CAB92464B45BED106
:1011A000029B5F469B4680239B0273614B4B1B78DF
:1011B000002B00D084E0494B5B78002B64D1474B77
:1011C0009B78002B6AD1454BDB78002B00D1EEE5F4
:1011D00004212F9B2B9A039803F00AFFE5E50123D6
:1011E0005A46137040223B7893433B70FFF772F8E6
:1011F00080239B02B3611823012221002370384809
:101200000CF06EFD80239B0273616420002100F0CE
:101210002FFF5B461B78002B00D1C8E569E7002251
:101220000021002001F09EF85B461B78002B00D1C6
:10123000BDE55EE780233A785B4213433B70FFF7DE
:1012400049F80123424613705B461B78002B00D1FE
:10125000ADE54EE77F223B7813403B70FFF73AF84D
:1012600043461D7080239B02B36118232100237025
:1012700001221B480CF034FD80239B0264200021D6
:10128000736100F0F5FE97E52D9B0221299A0398E2
:1012900003F0AEFE114B9B78002B94D02E9B0321C4
:1012A0002A9A039803F0A4FE0C4BDB78002B00D1A4
:1012B0007DE504212F9B2B9A039803F099FE74E59A
:1012C00001212C9B289A039803F092FE73E7402398
:1012D000FCE5102323E6202321E6C046C827002092
:1012E00000C00340094A83009A1810B514684022D0
:1012F000544080322240064CC000A44663441A6029
:10130000044B9C466044416010BDC04604C001408F
:1013100004D00140004001400123D0228340120646
:1013200093629361094A83009A18116840225140E0
:1013300080320A400649C0008C4663441A60054B5F
:101340009C460523604443607047C04604C001408A
:1013500004D00140004001408023DB051868000FE5
:101360007047C0460FB400B5084883B003F0BCFD19
:10137000049B002B07D005A91800019103F0D0FAB7
:10138000034803F0B1FD012003F0E2FADCE80010AD
:10139000F8DD001070B5EFF3108C72B60D4D2B68B0
:1013A000002BFCD0BFF35F8F0724CB08C618C05CAE
:1013B00001230C40A3401C000440034207D1184302
:1013C0003070BFF35F8F2C608CF3108870BD1000FD
:1013D000FFF7C8FF2C0100D0F8B54746CE46884637
:1013E00080B5EFF3108C72B61C4D2C68002CFCD02D
:1013F000BFF35F8F9A4222D807210126894602E077
:101400000132934218D34D4637001540AF40D408FF
:101410000119045D2742F3D110003C430C70BFF367
:101420005F8F00220D4B1A608CF3108800280EDBB2
:10143000C0BCB946B046F8BD01204042EFE7BFF35B
:101440005F8F00232B608CF31088012040424346BD
:10145000002BEDD00898FFF785FFC0462C0100D087
:10146000044A1078431CDBB2172B00D910231370E9
:101470007047C046F110002010B5064B064C82B0F4
:101480000100009318221F232000FFF7A5FF02B0E0
:1014900010BDC046ECE80010302300200021044BB2
:1014A000044ABFF35F8F02C39342FAD17047C0462C
:1014B000000100D0800100D0054B064A1360064AA7
:1014C000136053609360D3601361536193617047FD
:1014D0008080808000E400E004E400E01F231840E6
:1014E0001E3B8340002905D0C021044A49005350C7
:1014F00013607047802201498B50FAE700E100E059
:1015000001228240034B1B6813405A1E9341D8B2FC
:101510007047C04600E100E001238340014A1360A8
:101520007047C04600E200E0064B10309B68800028
:10153000C358054A00209B1A2F229A424041C0B24C
:101540007047C04600ED00E0F410002070B50D00BB
:10155000EFF3108672B60F4A1368002BFCD0BFF36E
:101560005F8F0D4B10309B6884001B590B4A9342D0
:1015700003D09D4201D000F0A5FF074B9B681D5191
:10158000BFF35F8FBFF35F8F0022024B1A6086F3B9
:10159000108870BD240100D000ED00E0C1010010F2
:1015A000F0B557464E46DE464546E0B585B00600E6
:1015B00000911700EFF3108B72B66A4A1368002B84
:1015C000FCD0BFF35F8F0025674B5D579A46002D17
:1015D00000DAA9E06B00654C01935B199B0098460B
:1015E000A146C1444B4652469B7910361370604B5E
:1015F000B6009B6899590B1B2F2B33D95D4B994231
:1016000000D0ACE0019B42469C465B4B6544AD007C
:1016100063535A4B0232A218043B9B1A1B05584ACB
:101620005B0D651913436B80564B0121AB80FF2383
:10163000AB71009BEF71AB604B460B4319004C4BF9
:101640009B689951BFF35F8FBFF35F8F0022454BBB
:101650001A608BF3108805B0F0BCBB46B246A946B1
:10166000A046F0BD01200A008243D3798C46BB42DC
:1016700031D84546130044491B1B5B415943090DB2
:101680003D4B63533D4B02356519043B5B1B1B050A
:101690003B4D5B0D2B43AA464D466B800425AC4663
:1016A0005546E044131F44441B1B1B055B0D1D43A3
:1016B0004B46997100999D8099604946DF71334B83
:1016C00001431360BBE75800C01880002018C1799F
:1016D000B9422FD902000623D356002BF3DA029326
:1016E0002B4B61460393131D9A4604235B429C4691
:1016F000E14450464B461B1A1B055B0D9C46204B94
:10170000957198466346404603439380019B5A195E
:101710009200039BA418A380029B1C4AA371009B08
:101720002260E771A3608AE700F0CCFE00255346F3
:101730005D574FE7908802934005131D9A460315A5
:1017400061469C464046D444634604302018181A2B
:10175000E0230005400D1B0218430390C5E700F08D
:10176000B1FE4FE7240100D00A290020F410002028
:1017700000ED00E0C101001000A1FFFF24110020D6
:1017800000E0FFFF01BDFFFFAAAA0000014880475B
:1017900001BD000070B501240443EFF30581EFF3B0
:1017A000108C72B6214A1368002BFCD0BFF35F8FF8
:1017B0001F4B05001F4AED1A6D416A43120D1E4D65
:1017C0008900AE6852B27658A6421CD006215956FE
:1017D00091421CD012215956914222D01E215956B5
:1017E000914220D02A2159560324914210D0134B04
:1017F00019781A708171BFF35F8F00220B4B1A604A
:101800008CF3108870BDAB680D4C5C50EFE7002482
:101810006100091989005B18FF21997109499980B4
:10182000E5E70124F4E70224F2E7C046240100D0F2
:10183000F4100020AAAA000000ED00E00A29002010
:10184000C101001001BDFFFF10B5084B084C82B06C
:1018500001000093002205232000FFF7BDFD0028B2
:1018600001DB1F23181A02B010BDC04608E90010A2
:101870000E290020024B9C4661448900016070479C
:101880004000003470B5114C114DAC420FD2FF2610
:101890002368002B0CD0FFF7E3FD01002000FFF7C9
:1018A000E9FFA680BFF35F8F0834AC42F0D370BD70
:1018B000FFF7D6FD01002000FFF7DCFF2671BFF324
:1018C0005F8F0834AC42E3D3F1E7C04688180020AC
:1018D0009018002010B50400FFF7C2FD01002000A1
:1018E000FFF7C8FFFF232371BFF35F8F10BDC04612
:1018F00010B504000120FFF7BFFD034BC3189B0088
:101900002360BFF35F8F10BD40000034034B9C4643
:10191000614489000160BFF35F8F7047400000346D
:101920000A4B1968EFF3108072B60A68002AFCD0DF
:10193000BFF35F8F1B68BFF35F8F00221A6080F3D5
:10194000108840BF002000217047C046E8280020D2
:10195000F0B5DE4657464E464546E0B587B0EFF354
:101960000583032201251A40954091008846A94627
:10197000B34B03925C58B34B1D60B34B04934B467F
:10198000B24843630823E55E002D37DAA3881BB213
:10199000002B00DBADE0A379002B00D0EEE00823A4
:1019A000E05E002820DB430062691B18DB00D318CF
:1019B0009E68DD68731C00D111E1A4480100414418
:1019C000826A0B69B71A9B1A9F4215D30123026AD8
:1019D000039883401A420FD09C4800F037FB8D4299
:1019E00002DCCCD18642CAD940BF07B0F0BCBB46AE
:1019F000B246A946A046F0BD0E61EDE762696B00F4
:101A000092465B19DB009A4453469E68DF6800F0FB
:101A10001DFB8F42BADC00D103E1002F00DAE8E0C1
:101A20005246534652691B699346049A934200D129
:101A3000D9E052460821605E52880004594610439E
:101A40009847009001910099019A0B0010001343F0
:101A500000D1CEE013000A00B61A9F41002806DB31
:101A60007A4800F0F3FA009E019F36184F41534622
:101A70009E60DF6000229A5E002A00DA86E753004B
:101A800099186069C900411802938B68C9689B4620
:101A9000B94200DD7AE702D1B34200D976E70823E4
:101AA0009C46A444059565462281A446029B2C00D1
:101AB00006E053009918C90041188D68C968AB4603
:101AC0009B18DB00C318B94206DC00D1B3E01C0050
:101AD0000023E25E002AECDA230064469C4653466B
:101AE0001A806346059D1D80A3881BB2002B00DA77
:101AF00051E72269EFF3108172B61368002BFCD016
:101B0000BFF35F8F0123A7885B42A3803FB22369A5
:101B1000BFF35F8F00221A6081F31088002F00DA74
:101B200039E72300083322009A4666697B00DB19F7
:101B3000DB00F318996850468C460824115FDD6875
:101B4000002910DB029306E0AB4244D00023E15EA3
:101B50002000002906DB4C006418E4003419E36817
:101B6000AB42F1DD029B078000201F5E1980002F31
:101B7000DCDA1400A379002B00D110E70023A37155
:101B800026000823E15E08364B1C00D12CE7080034
:101B9000A246656902E03E004B1C1AD04B005B1860
:101BA000DB00EF180A008C46E95E7B881BB2002B35
:101BB000F1DA01235B42DC17BB60FC60824205D096
:101BC000534631801B893B8053461A8160464B1C2B
:101BD000E4D15446E5E6A3686345B7D9C2E76B1C78
:101BE00000D0EAE6F8E65B4658461B6998470028AD
:101BF0001BD153461B8822692381EFF3108372B6F1
:101C000011680029FCD0BFF35F8F514662880A80BB
:101C100022696580BFF35F8F0021116083F3108814
:101C2000B4E6864200D8F8E6B0E65B461A685B6820
:101C30000092019307E7B34500D848E74CE7C04658
:101C4000CC2700203C700540511900100040054091
:101C500070B52E4C2569002D04D00A212C48FFF7C1
:101C600009FE70BD2B4E0321300000F0E5F9E6605F
:101C7000FFF7F6FB284B03229C46D02322701B065D
:101C80001B6801216370254B6044A3600F23800013
:101C900020610220638063694942A180198002317A
:101CA000198647311D83585218315A5275325C39A2
:101CB0009952183201319952183201319952183221
:101CC00001319952083518329D5202311832995219
:101CD00018320131995218320131995218320131BA
:101CE00099521832013199521832013199520C4BE4
:101CF0000C49DC6001303562FFF728FC012103202C
:101D0000FFF7ECFB084B1D60A7E7C0463C11002025
:101D1000E82800200040054040000034FFFF10008C
:101D2000CC2700205119001038600540004870474A
:101D30003C110020F8B51F0008AB1B78040016000A
:101D4000002B08D100F08AF932003B00121A8B41B7
:101D5000002B00DA52E02269EFF3108072B61368AC
:101D6000002BFCD0BFF35F8F0223E15E63694A0062
:101D70005218D2009B182269002936DB1D88658025
:101D8000BFF35F8F0025156080F31088069A9E6070
:101D9000DF601A61079A5A615A8801325204520C64
:101DA000101C002A1FD082B25880080410432669F4
:101DB000EFF3108772B63268002AFCD0BFF35F8F52
:101DC000A2881A80A1802369BFF35F8F00221A6066
:101DD00087F310880A4923788C4601329A40E368D9
:101DE00063441A60F8BD0120DDE7BFF35F8F002375
:101DF000136080F3108801204042F3E70020F1E7F0
:101E00003C20000070B501000469EFF3108C72B63D
:101E100020680028FCD0BFF35F8F02200D5E4C6964
:101E200068004019C00024180869002D36DB268898
:101E30004E80BFF35F8F002606608CF31088E3604E
:101E400063880498013320615B0405985B0CA260F1
:101E500060611A1C002B1FD093B2280462801843C3
:101E60000A69EFF3108C72B61368002BFCD0BFF335
:101E70005F8F8B8823808D800B69BFF35F8F00227B
:101E80001A608CF310880B7801329A40CB680849AD
:101E90008C4663441A6070BD0122DDE7BFF35F8F9B
:101EA000002303608CF3108801204042F3E7C04612
:101EB0003C20000010B543890A1493421ADD5300F8
:101EC0009B184269DB00D3180469EFF3108C72B6DB
:101ED0002268002AFCD0BFF35F8F5A88090494B2AD
:101EE000090C8A4208D00369BFF35F8F00221A6091
:101EF0008CF31088002010BD8022120214435C80F5
:101F0000012302698371BFF35F8F002111608CF39D
:101F10001088044902788C469340C26801206244CC
:101F20001360E8E73C20000040787047F0B5574662
:101F30004E46DE464546E0B506000F0085B0EFF39D
:101F4000058399468B46002B12D0384900204B6AF6
:101F5000BB4206D38A6ADB1B591E8B41B242404109
:101F6000184305B0F0BCBB46B246A946A046F0BD3A
:101F70002F4B9A46DB68984653461B78404603939E
:101F800000F064F84246039B040004339B009B5816
:101F90000D001B1A39003000001BA941894510DCD7
:101FA0000DD020BF214A0020536A5B45D9D3926AE5
:101FB000DB1B591E8B41B24240411843D1E783429B
:101FC000EFD900F04BF832003B00121A8B41002B86
:101FD0001ADB00230193174B3200009350463B005D
:101FE000FFF710FF011E0FDD104B5A6A5A451BD335
:101FF0009B6AB34216D35046FFF75CFF0B4A0020A2
:10200000536A5B45ADD3D2E7084A0020536A5B456B
:10201000A7D30020926ADB1BB24240415A1E934173
:1020200018439EE75A45E6D120BFE4E7004005404B
:102030003C1100202119001010B5024A0248FFF798
:10204000A9F910BD24E90010342300200300416ADF
:102050000A00986A596A8A42FAD17047034B596A52
:102060000A00986A596A9142FAD1704700400540C7
:1020700070B504000D00174A536A1900966A536A36
:102080008B42FAD13000190024184D41AB4216D8CA
:1020900013D0104B2A005B6A9D4203D90D494B6A4D
:1020A0009342FCD3934207D10A4A02E0516A994213
:1020B00002D1916AA142F9D370BDA642E9D9054B7C
:1020C0005B6A1C005A1CEFD0012201246442E51710
:1020D0005242E3E700400540F8B5DE464E4657461B
:1020E0004546E0B58B4605000A991800160000F039
:1020F0003BFB0A9B6C001F02324B64199C46A400F8
:102100006444636881469F4200D967602B1FDBB23D
:102110009846012B30D9C02380229B01E31812017D
:102120001A60294BAD0059599A4600291BD17301F9
:10213000E026226853401E40802342465B01E3189C
:102140001E60012A30D9802380229B01E3181201EE
:102150001A6053464A4667605A51F0BCBB46B246C5
:10216000A946A046F8BD586900F0FEFA01304300C8
:102170001B18033BFDD2DAE75B46012BCBD1C02312
:1021800003229B01E3181A60023AA3681A42FCD0AA
:102190007301E0262268AD0053401E4080230A4AA6
:1021A0005B019246E3181E605A46216851400322A3
:1021B0000A401A6001225B469A40A3681A42FCD08A
:1021C000C1E7C0460080004038230020F0B54646F5
:1021D0004F46D646C0B51F00344B44009C462418D9
:1021E000A4006444636888461600FF2B02D880234D
:1021F0005B006360031FDBB29A46012B30D9C0231A
:1022000080229B01E31812011A60294B850059595D
:10221000994600291BD17301E026226853401E40D5
:10222000802352465B01E3181E60012A30D98023C7
:1022300080229B01E31812011A6080235B00636017
:102240004B465F51E0BCBA46B146A846F0BD58695E
:1022500000F08AFA013043001B18033BFDD2DAE795
:102260004346012BCBD1C02303229B01E3181A6004
:10227000023AA3681A42FCD07301E0262268850066
:1022800053401E4080230A4A5B019146E3181E60BA
:1022900042462168514003220A401A600123424607
:1022A0009340A2681342FCD0C1E7C04600800040C2
:1022B00038230020014B8000C0587047382300208D
:1022C000F8B5040021481E0017000D0000F04CFA7C
:1022D0000100380000F048FA069B36041B031E4339
:1022E0002368002B20DB1A4B1A49E3185A1E93412E
:1022F0008022920194465B421B0B174A1B036344E6
:102300001360164A13601F000A689743FBD1144BF1
:102310002560E2182123A06013602368002BFCDAFB
:102320000823E6601360F8BD3F2322681340AB42E8
:10233000D9D1A3681B051B0D8342D4D1EE22E368DB
:10234000D2021340B342CED1EDE7C046001BB70026
:102350000040FDBF08C0004000E0004000F0004029
:102360000430000010B580241C4BE4051C600028DC
:102370001AD001231A4C18431A4BDC611A4C444002
:102380001C62596298628021144BC9051960174874
:1023900017490860E021C9041960002A07D180228A
:1023A000144B12061A6010BD0E4BD861EBE75301B7
:1023B0009B1A9B009A18802312015B049A4209D24F
:1023C00013000D490B60074B5A608022094BD20560
:1023D0001A60E8E7094B1A00F3E7C04600B0054071
:1023E000D3C007B0008005402D3FF84FFCFF01002F
:1023F0000820014000A00540A0270020FFFFFF00AB
:102400008023024A9B000B43D36270470080054043
:10241000002310B50100988A1B8B984710BDC04659
:10242000162310B50100188802331B88984710BD89
:10243000F8B54746CE4680B50F1E18D014239946EE
:10244000043304000025012698464B46188843466D
:1024500021681B88984701C4431E984101350640F6
:10246000AF42F2D13000C0BCB946B046F8BD01263B
:10247000F8E7C046002370B504000D00988A0549AE
:102480001B8B984703000020002C01DB0130A0408B
:102490002900984755420000AA23064A1B011360F1
:1024A0008D235B00D3600449044B19605368002BF3
:1024B000FCDA70470040024000B0FA0000600240C1
:1024C0007047C04610B50148FEF74CFF48E90010C0
:1024D00070B5074D074EB54209D20024013E761B68
:1024E000B60808CD984723000134B342F9D170BD36
:1024F00040DD00107CDD0010054B064A06491A60DD
:10250000064A074B1A6010000B689843FBD17047CE
:1025100000E00040BFCDFBFE08C00040FE7F3C0055
:1025200000F00040044BDB6C002B03D18022034BF6
:10253000D2021A607047C046000011504C20115062
:10254000044A054B1A60054A1368DB018033FBD14E
:102550007047C046FFFFFF0100F0004008C0004088
:102560004022034B9A675A671A67DA667047C0467B
:1025700000F0014010B5FEF791FF10BDF8B52749F6
:10258000274C284D641AA6103200302E00D9302274
:102590002800920000F022FDBC2C3BD830202F23D5
:1025A0002C196407204A801BE40F9B1B052B16D9AE
:1025B0003700002C02D0B300771CEA50001B3319FF
:1025C0009B004108EB18C900C9181A605A6008330B
:1025D0009942FAD1012303421CD09843C619B30093
:1025E000EA50731C2F2E15D09B00EA50B31C2E2EE0
:1025F00010D09B00EA50F31C2D2E0BD09B00EA500C
:10260000331D2C2E06D09B00EA50731D2B2E01D0BB
:102610009B00EA50054B9D60F8BDC04600010010CC
:10262000C001001000000020C101001000ED00E01A
:10263000002310B5294C82B0A367FFF72DFF0122BC
:10264000274B1A60636C012BFCD10322254B1A60C7
:10265000224A936B012BFCD1013300930121224AC2
:1026600022480433FFF72CFE052301210093204A62
:102670002048FFF725FE0022022104201E4BFFF711
:10268000A5FD0022012105201C4BFFF79FFD002224
:10269000002107201A4BFFF799FD00220021082096
:1026A000174BFFF793FD8023DB00009300220021EE
:1026B0000920134BFFF710FD0022104B00210620CC
:1026C000FFF784FD0420FFF7F5FD0E4900F04CF8FC
:1026D00001000020FFF794FE02B010BD0080004012
:1026E0003CB0004030B00040002F685900800240EC
:1026F000008C864700C00240001BB700405973079A
:10270000006CDC0240420F0001480421014B1847D5
:102710006011002031240010124A936F9B0815D2DB
:102720009066D166002905D0FFE7FFE7FFE7516F0C
:10273000106F704704B580210906C2175140002868
:1027400000D0C8430BF0B4FA002104BDF0B5146EFC
:10275000556E576F166FFFF7E3FF146655665767A0
:102760001667F0BD000000D0114A936F9B0813D28A
:1027700010665166002905D0FFE7FFE7FFE7516FBC
:10278000106F704704B5002801D00020C0430BF043
:102790008FFA002104BDC046F0B5146E556E576F18
:1027A000166FFFF7E5FF1466556657671667F0BDAD
:1027B000000000D094464A4A926F9208624601D2C5
:1027C00028E0C046F0B5464E346E756E776F366FB2
:1027D00000F020F89446424A14665566576716671B
:1027E0006246F0BD94463E4A926F9208624601D21C
:1027F00054E0C046F0B53A4E346E756E776F366F62
:1028000000F04CF89446364A1466556657671667CA
:102810006246F0BD002B24DB11D000293EDA00B562
:10282000C943404200D1013100F038F8C943404269
:1028300000D10131DB43524200D1013300BD002AF7
:10284000EBD1002801D1002905D00020C90FC9070C
:1028500001D1C043410800B50BF01AFA0022002351
:1028600000BD00B500290ADBDB43524200D1013331
:1028700000F014F8C943404200D1013100BDC94302
:10288000404200D10131DB43524200D1013300F01C
:1028900005F8DB43524200D1013300BD002923D1AA
:1028A000002B18D1002A0CD0BC460D4F38667A6632
:1028B00000210023FFE7FFE7FFE77A6F386F6746E5
:1028C0007047002801D00748010000B50BF0E0F97F
:1028D0000022002300BD02000B00002000217047F1
:1028E000000000D0FFFFFFFF002B00D0BFE0130C63
:1028F00028D1002AE7D080B4114F39667A66FFE705
:10290000FFE730B4040C7B6F396F1B0423433B6635
:102910007A66FFE7FFE7FFE7C04684B27B6F3D6F53
:102920001B0423433B667A66FFE7FFE7C0460023AC
:102930002C042D0C7A6F386F00196941B0BC7047B8
:10294000000000D0F0B594460025140E01D112020B
:102950000835140F01D112010435940F01D19200F2
:102960000235D40F01D152000135D40B0134254F6B
:102970007C66254C3C660E0C93B2FFE7FFE7FFE751
:102980003C6F6643360C7703BE467343DF0B5B0434
:10299000C01AB941130C7343DB18C91ACE08664339
:1029A000360CB64493B273431F0F1B01C01AB941D2
:1029B000130C73431F0B1B05C01AB941860D8F0200
:1029C0003E436643360C092D24DB520A7243801ABB
:1029D0007703460A6643360C16235B1BDE40DF4056
:1029E000BF1964466643821B7046043506330100F6
:1029F000D940A840C01900D30131A24206D2002319
:102A0000F0BD0000000000D0FFFFFFFF121B0130EF
:102A1000F3D3F1E709277F1BFE406446A2B272435D
:102A2000801A00D20139220C7243130C1204821A4C
:102A300099410B007046043513370100F940A84056
:102A4000801900D30131002B02D1A2420AD2F0BD7D
:102A5000013000D30131121BFAD2013BF8D1A2425E
:102A600000D2F0BD013000D30131121BF7E7F0B501
:102A70001C0C00D080E00CB400251C0A04D11B0201
:102A8000160E3343120208351C0B04D11B01160F1E
:102A90003343120104359C0B04D19B00960F334342
:102AA00092000235DC0B02D192185B4101351C000B
:102AB000971864410134464F7C66464C3C660E0CC8
:102AC000FFE7FFE7FFE7C0463C6F6643360C77033E
:102AD000BE4697B27743C01B00D20139C01B00D25B
:102AE00001399FB27743C91BC91B170C77437E047A
:102AF000FF0B801BB941CE086643360C0C2D33DB2F
:102B0000B644120B1F053A431B0B97B27743C01B09
:102B100000D201399FB27743C91B170C77433E049B
:102B20003F0C801BB941860D8F023E436643292727
:102B30007F1BFE400C3D7746AF40BF1930BCA2B2B0
:102B4000ABB272437343801A9941220C7243130C47
:102B50001204801A994102000B000137001BA941A1
:102B6000F9D2781E0021F0BD0C277F1BFE4077466E
:102B70007F0BAF40FF19E0E700245D1C07D0144F26
:102B80007D663966FFE7FFE7FFE7FFE73C6F95B239
:102B90009EB265436643401BB141150C1E0C654354
:102BA000664336042F0C3E432D04401BB14199422D
:102BB00004D202000B0020000021F0BD01D19042A0
:102BC000F7D3801A994101349942F2D3F6E7000015
:102BD000000000D0FFFFFFFF48404140484018B4CC
:102BE000134B5B68019308BD18B4114B1B6801932C
:102BF00008BD94460F4A926F920805D2624618B4F7
:102C00000B4BDB68019308BD0A4AF0B5146E556E94
:102C1000576F166F6246FFF7F2FF064A1466556655
:102C200057671667F0BD18B4014B9B68019308BD48
:102C3000181A0020000000D0FFB55040424050401C
:102C400059404B40594000E0FFB5154F4C00640D12
:102C500003D0BC4204D10C0314D80020090D09058F
:102C60005C00640D03D0BC4204D11C030AD80022CE
:102C70001B0D1B0501264B4009D44B4003D58B424D
:102C800000D18242FFBD9942FCD19042FFBD0B436F
:102C9000DB1803431343F5D0C9434918FFBD0000B7
:102CA000FF07000000B5FFF7CFFF01D0002000BDF7
:102CB000012000BD00B5FFF7C7FF804100BDC04641
:102CC00000B5FFF7C1FF01D9002000BD012000BD04
:102CD00000B5FFF7B1FF01D9002000BD012000BD04
:102CE00000B5FFF7A9FF804100BD012040054A0063
:102CF000121804D85A00121801D800207047012079
:102D0000704700000021002805D17047C1174840D6
:102D1000401AFAD0C90713B5064B1B6898470CBC7C
:102D2000441CA2401005120B0349091B0905194355
:102D3000114310BDE42700201F04000010B54C0013
:102D4000620D8023D218DB00D21A5B057E2A10DDCB
:102D50009E3A13DACC170903490819435242D1406D
:102D6000640001341532202A05DAD040084360435C
:102D700010BD002010BD0846604310BDC80FC0182C
:102D8000013810BD18B4024B5B6A019308BD000006
:102D9000181A002018B4024BDB6D019308BD000027
:102DA000181A0020C94211D300B549004908002271
:102DB00000F014F8002904D4002240428A41114650
:102DC00000BD80210906002000BD000018B4024BA0
:102DD000DB6E019308BD0000181A002018B4024BE6
:102DE0009B6F019308BD0000181A002018B4024B15
:102DF000DB6F019308BD0000181A002010B50148D0
:102E0000FEF7B0FA54E90010132370B51D78012DB8
:102E100019D014DD1D48FFF703FB06001C48FFF71F
:102E2000FFFA1C4C80223100200000F0D7F8022D60
:102E300006D01948FFF7ECFA184B186070BD154C16
:102E4000174BA364F5E7174B124C23606360A36034
:102E5000E36023616361A361E36123626362A36250
:102E6000E36223636363A363E36323646364A36430
:102E7000E36423656365A365E36523666366A36610
:102E8000E36623676367A367E367D9E753440000FA
:102E900053460000181A00204C330000E42700209D
:102EA000A92E0010FD2D001007B5604601880A0A02
:102EB0000230DF2AFAD1C9B2820804D302884088DE
:102EC0000004104300E00068014A5050039007BD21
:102ED000181A002051434343C9188C46110C83B281
:102EE0004B4310B4040C614392B280B2504362432E
:102EF0001C041B0C001910BC59411304120CC018FF
:102F0000514161447047000010B50148FEF72AFAAC
:102F100068DE0010132310B510481C78FFF780FA04
:102F20000100012C0AD003DD80220D4800F056F884
:102F30000C48FFF76DFA0C4B186010BD084C54227A
:102F4000200000F04BF82200084980322368002B53
:102F500000D1216004349442F8D1E9E753460000DF
:102F6000E82700204C330000E4270020092F001040
:102F700010B5040004F00EFD002804D0034B041922
:102F80009C4200D810BD0248FEF7ECF90000042076
:102F90006CE9001010B50C0005F006F8002804D00C
:102FA000034B04199C4200D810BD0248FEF7DAF921
:102FB000000004206CE9001010B504F0F5FC10BD11
:102FC00001480421014B18477011002031240010E2
:102FD000014B1B681847000070110020014B5B6813
:102FE00018470000701100209A4200D288547047A0
:102FF0007047C046F8B55746DE464E464546E0B5F2
:1030000099460A9B07009A460D9B884693460B9C5F
:103010009B073BD10C9B9C423DD21E1B0B94150081
:103020000C005E442A004B46013521002020B847A1
:10303000B542F7D1A0460B9C002C20D0454636194E
:103040005346321B013C185D29004B46B847002C03
:10305000F6D12B00350098460D9B9B070FD55B469C
:10306000EC1A0C9BA3420AD9464698462A004B46C6
:10307000310020200134B84701354445F6D32800FB
:10308000F0BCBB46B246A946A046F8BD16001500E6
:10309000002CD3D1E0E716001500002CCED1EEE7CE
:1030A000F0B54546DE4657464E46E0B585B09C46EF
:1030B00010AB1B78149F934698460F9C129E139D4D
:1030C000BB074CD4002D42D1B44248D201233B402F
:1030D00099460E9B013B9A46302304E05246013448
:1030E0001355A64201D9202CF8D14B46002B00D114
:1030F00083E00E9B013B99463023A54205D82EE084
:103100004A4601341355AC4229D0202CF8D1FB0695
:103110000CD57B0554D4A64263D0A54261D0119B47
:10312000102B50D0022B57D0202C32D120230193CA
:103130000E9B5A460093039763460295FFF75AFF8A
:1031400005B0F0BCBB46B246A946A046F0BD01237F
:103150003B40994601233B422AD1B442B9D3FB06F6
:103160001CD57B05DBD4002CD5D1119B102B5BD05B
:10317000119B022B6BD0302301240E9A137043460F
:10318000002B10D17B073ED52B260E9A631C1655BB
:10319000CDE72300013430260E9AD654202CC5D01A
:1031A0004346002BEED02D260E9A631C1655BEE723
:1031B0004346002B2FD0013DB44200D289E798E767
:1031C000119B102BB2D1BB0637D5202CAED0582383
:1031D0000E9A13550134A7E7202CA7D02300013401
:1031E00007E0631E012CC0D0119A102A31D0022AA8
:1031F000D1D162260E9AD65496E7FB06CED57B0532
:1032000000D488E78BE723003E0790D520260E9A4E
:10321000013316558BE70C233B405A1E9341ED1AA0
:10322000B44200D255E764E7BB060ED478230E9A69
:103230000224137030235370A1E7202C00D175E7CE
:1032400078230E9A135501346EE75823EFE7603365
:10325000EDE70E9AA61E91464E44BA0602D55822B4
:10326000327098E77822327095E7C04610B5002892
:1032700000D110BD01F0EEFDFBE7C0460B0010B51C
:10328000002802D049681B68984710BDF0B5574622
:10329000DE464E464546E0B595B083460F00924661
:1032A00098461E9A1F9B10001900209EFFF71DFDD7
:1032B000002800D0EAE11E981F990122C54B524216
:1032C000FFF7F8FC002800D014E11E981F99012296
:1032D000C14B5242FFF704FD002800D0E9E01E98E0
:1032E0001F990022BD4BFFF7FBFC002800D0C8E06F
:1032F0001E981F990022BA4BFFF7DCFC002800D073
:10330000BFE01E981F9900220023FFF7D3FC00287E
:1033100000D0E4E000230B93229B5B0500D406263B
:103320000024302307E0172106AA01345218135550
:10333000013E202C01D0092EF5D81E981F99FFF7C9
:10334000FDFCA84BF2009B181A685B680500089208
:103350000993FFF7DBFC02000B001E981F99FFF793
:103360003EFC089A099BFFF75EFC06900791FFF769
:1033700009FD8146FFF7C6FC02000B00069807997D
:10338000FFF72DFC0022984B06900791FFF7A8FC51
:10339000002800D10DE101239C46E1444846FFF797
:1033A000B1FC02000B0008980999FFF789FC00287E
:1033B00002D0002399460135002E00D1D9E00695B0
:1033C0004D46B94614E006AA944617230A216344E1
:1033D000280001341F19FFF7C7F930313970280070
:1033E0000A21013EFFF7C0F9092D00D817E10500B9
:1033F000202CE8D14F46069D20240CAE06AA1723A8
:103400009446634499465B46B34606930FE04B46A9
:1034100028000A210134E618FFF77EF93031280030
:1034200031700A21FFF778F9051E00D1E4E0202C65
:10343000EDD1069B5E469B460323229A1340012B47
:1034400018D1219B002B15D00B9B002B00D1FDE048
:10345000219B013B2193202B0CD93023219A07E09B
:10346000172006A9013409180B55944200D3CCE06B
:10347000202CF5D1229B01940393219B009602936B
:1034800022E0229B52460493219B39000393584625
:103490001E9B1F9C029600930194434600F04AF93C
:1034A0000400200015B0F0BCBB46B246A946A046B9
:1034B000F0BD229B5B070FD403224C4B2299019253
:1034C0000391219900930291434652463900584690
:1034D000FFF790FD0400E4E70422454BEEE71E9A57
:1034E0001F9B00200021FFF77AFB01231E901F91F4
:1034F0000B9311E7229B54469B0711D1219B042B70
:103500000ED9219B55469C465E46043C64442A00E5
:103510004346013539002020B047A542F7D1B346D4
:10352000344D26002B1F99465B46A3461C003200F3
:10353000E87843463900013DA04701364D45F6D1B4
:1035400023005C469B46229B04349B07A9D5534627
:10355000219AE31A9A42A4D95E46150022004346F6
:1035600039002020B04753460134E31A9D42F5D874
:1035700097E72800FFF7CAFB02000B001E981F996F
:10358000FFF72DFB0022184B06900791FFF792FBE7
:103590000CAE002800D031E7069807990022124BA4
:1035A000FFF79EFB002800D028E7012301359D434B
:1035B00024E70022069807990B4BFFF77BFB0028B6
:1035C00000D0F9E64B46002B5CD101239C46E14438
:1035D000F2E6C046FFFFEFFFFFFFEF7F65CDCD4175
:1035E00065CDCDC1C8EF00100000E03FC8E9001074
:1035F000C0E90010D0E90010069B5E469B460323FD
:10360000229A1340012B00D181E0202C00D131E718
:103610000B9B002B27D02D23335501342AE74F462F
:10362000069D202C00D1E7E63022331907E0172051
:1036300006A9013409180A55202C00D1DCE6A34262
:10364000F5D12E220CAE0134F254D7E60C23229A87
:10365000134257D0219B013B2193A34200D9FCE6A2
:10366000202C00D106E7229B5B0703D52B23335583
:103670000134FFE6229B1B0700D4FBE620233355D1
:103680000134F7E6DB0700D496E69EE7229B554619
:103690009B0711D1219B032B0ED9219B54469C469D
:1036A0005E46033D65442200434601343900202034
:1036B000B047AC42F7D1B346B9465F461C4EEC1C4E
:1036C0002A00B078434649460135B847013EAC422E
:1036D000F6D1229BBB464F469B0700D4E1E65346FA
:1036E000219AE31A9A4200D8DBE65E4615002200D2
:1036F000434639002020B04753460134E31AAB4219
:10370000F5D3CEE6219BA34200D9A6E6B2E6219BE3
:10371000002B00D179E70B9B002B97D0219B013B1D
:1037200021939C4200D298E6202C00D073E7A1E6BA
:10373000CCE90010F0B5DE4657464E464546E0B5AA
:1037400099B081468B4692469846229A239B100058
:103750001900FFF7CAFA002800D0CAE0229823997E
:103760000122824B5242FFF7BBFA002800D0C0E092
:103770002298239901227E4B5242FFF79BFA0028A0
:1037800000D0B6E02298239900220023FFF792FA96
:10379000002800D0C9E1229B239C08930994089833
:1037A00009998023269ADB001A400D928022269CDC
:1037B0001201144022000B94269C07000E001C42AC
:1037C00000D0ADE00B00034300D0D5E0002A00D0CC
:1037D0000AE2220006332493022313400C930223AF
:1037E000134200D002E2259B042B00D20FE2043BDF
:1037F0000B93002304250A93002222982399002387
:10380000FFF758FA002800D003E25A4B269A1340DB
:1038100004930B9B0393249B0293089B099C0093A6
:1038200001945946434652464846FFF72FFD020091
:103830002020269B1F27034059424B415B421840E2
:10384000531C0893594643464530C8470A9AD31734
:10385000D4185C40D30F0A936B1E0B9308AB9C46A5
:103860000025674401E0202D0FD020000A21FEF73B
:103870007BFF01357E193031317020000A21FEF7BF
:1038800073FF26000400092EEDD8052306930B9B39
:1038900059460593002304930A3303930A9B484631
:1038A000029310AB0093089A43460195FFF7F8FB8B
:1038B0000C9B002B2DD05346C41A259BA34228D91C
:1038C0004D465F4681461E00534639001A19202096
:1038D00043460134A847A642F6D8534648462599A0
:1038E000C21A01320023914200D386E10130181838
:1038F0000FE0269B0493259B0393249B0293229B1A
:10390000239C009301944346524659464846FFF78C
:10391000BDFC19B0F0BCBB46B246A946A046F0BDFE
:1039200001432BD10B9B2200002B00D154E7002335
:103930000A93249B0A9A0024934200DD85E1229891
:10394000239900220023FFF7B5F9002800D035E1C4
:10395000269B084A02941A408023DB0013430493F9
:10396000259B0393089B099CCBE7C046FFFFEF7F95
:10397000FFFFEFFFFFF7FFFF06232493B44B700018
:103980009C46400D6044FFF7C1F9B24AB24BFFF7C5
:103990004AF9B24AB24BFFF727F93603B14B360B5F
:1039A000334304000D00380019000022AE4BFFF72E
:1039B00016F9AE4AAE4BFFF736F902000B002000B5
:1039C0002900FFF711F9FFF7B9F90A90FFF79EF9FF
:1039D000A84AA94B04000D00FFF725F90022A74BC8
:1039E000FFF702F9FFF7AAF9A54A0600A54B200048
:1039F0002900FFF718F9040030000D000C96FFF7BE
:103A000085F9A14AA14BFFF70EF902000B00200037
:103A10002900FFF7E4F802000B0006000F00FFF793
:103A200002F9320004000D003B0030003900FFF7BE
:103A3000DBF800220E900F91954B20002900FFF734
:103A4000D8F80022934BFFF7CFF802000B002000BC
:103A50002900FFF7CEF800228F4BFFF7C5F80200D0
:103A60000B0020002900FFF7C4F80D00802104009E
:103A700032003B000020C905FFF7B1F802000B003F
:103A800020002900FFF7B0F802000B000E980F99F4
:103A9000FFF7AFF80022734BFFF7A6F87F4B0C9CA3
:103AA0009C46644400222305FFF7BDF806000F0082
:103AB00002000B0008980999FFF7FCF800280AD0CB
:103AC0000A9B3000013B39000A930022714BFFF73B
:103AD00090F806000F000A9A330063323900C62AB4
:103AE00012D802222698042510400B9A0C90002A26
:103AF00025D1259B042B05D9002800D0A1E0259BCA
:103B0000043B0B93042541E00222269810400B9AB7
:103B10000C90002A12D1259B052B76D9002872D152
:103B2000259B0525053B0B9334E080221206944625
:103B3000229B0893239B6344099330E605250B439E
:103B400000D1F6E608980999554A564BFFF7C0F898
:103B5000002808D0089809990022534BFFF7AAF8CB
:103B6000002800D0E5E6249B002B1CD00D9B002BE9
:103B700019D0249B013B2493259BAB4204D90C9B79
:103B8000002B5AD002230C9300230B930A9B002B8B
:103B900000D131E60898099932003B00FFF729F877
:103BA0000890099128E6259BAB42EDD90C9B002B90
:103BB00043D000230B9302330C93E7E78020269B2E
:103BC0003A4A00061A40802384460294089C099DC4
:103BD0002900DB0013430493259B614422000393D7
:103BE0000B00009201938EE60524A8E600230B93B8
:103BF0000A93023304250C93FEE553468C46013BA1
:103C000063441B1A72E602230C930525C2E70423C2
:103C1000EDE58020089E099F000639008446269A1B
:103C2000224B6144134004930B9B32000393249B6B
:103C300002930B0000920193F3E5259B5B1B0B9312
:103C4000A4E7022304250C93A0E79C1A013C76E626
:103C500001FCFFFFFB799F501344D33FB3C8608B37
:103C6000288AC63F0000F03F0000F83F61436F63C1
:103C7000A787D23F71A379094F930A400000E03F24
:103C80001655B5BBB16B0240EF39FAFE422EE63F46
:103C900000002C400000244000001840FF030000FA
:103CA0002D431CEBE2361A3F80842E41FFF7FFFFC5
:103CB000F0B5DE4657464E464546E0B5A5B01E0077
:103CC0002E9B92460C93CD4ACD4B80468B461A6074
:103CD000002900D1EAE1002330789946002800D17C
:103CE000ECE1C84B4C460B93C74B454657460E93E9
:103CF0000AE0631C984622003B005946A847444608
:103D00003078002800D187E001362528F1D108233A
:103D10009A46043B9946023B9846013B00229C464A
:103D20000D943078711C0300203BDBB2102B03D8BC
:103D30000B9C9B00E3589F460300303B89460D9C3B
:103D4000092B3AD9002398462A2800D1C1E0002344
:103D50009A462E284BD00300683BDBB2122B1ED8AC
:103D60000E999B00CB589F4663460E001A43D8E736
:103D700043460E001A43D4E74B460E001A43D0E7E1
:103D800010230E001A43CCE753460E001A43C8E72F
:103D900080235B001A43FF3B9C467078E1444E460B
:103DA00067284FD82428A4D90300253BDBB2422B37
:103DB0009FD896499B00CB589F46002394461E00EF
:103DC00000E00131B3009B195B001E180878303EFB
:103DD0000300303B092BF4D90123624689469C46F7
:103DE0000023B0469A460E00E1442E28B3D130217C
:103DF000802049428C46C000024370784B46844480
:103E00006146092900D86CE12A2800D17AE1012312
:103E10009C464E46E1449EE7A146A846BA46CA459E
:103E200003D801235B425344994653464A465946B8
:103E30000020C047200025B0F0BCBB46B246A946D2
:103E4000A046F0BD0300693BDBB20D930F2B00D9F8
:103E50004FE7012199408C466D49894661464B46A2
:103E600019400F91634649460B4200D028E10D9B53
:103E70000A2B3AD0072B00D03BE70C9B190008C94E
:103E80008846002B00D14BE121200243914614A922
:103E90008C461F220F2162448C4651460D950C9191
:103EA000A24615000F9902E020290CD013006446A9
:103EB0001C4020003730092C00D8073801316854E5
:103EC0001A090F2BF0D80C9B54460D9D9A460F9162
:103ED00033E10C9B02CB8846002947DB0C9301237E
:103EE0009C4670784E46E14431E70C9B02CB14931C
:103EF0005346002B00D138E19C4608780B000C900B
:103F00008C44002801D100F098FC89466146944613
:103F100003E05A780133002A01D08B42F9D1494697
:103F200062465B1A0C900F93530500D520E10223E3
:103F3000180010400D90134200D1CBE30D930B1BE2
:103F4000B1469A465E460C9822003B003100A847D5
:103F500053460134185D0028F6D1B3464E460D9BFA
:103F6000002B00D0C7E1149B0C93C9E60C930123EE
:103F70009C46283849420243884670784E46E144C0
:103F8000E5E670786C2800D17FE180235B001A435E
:103F9000FF3B9C46E14402E780239B001A43012338
:103FA0009C467078E144FAE67078682800D173E1A5
:103FB00080231A437F3B9C46E144F0E6672800D10A
:103FC00003E1472800D15AE1452800D15AE1049283
:103FD000072142460C9B0392073352468B4319003C
:103FE00002920CC92800009201930C9122003B0020
:103FF0005946FFF79FFB040082E6C046B13C001023
:104000009C27002028EE00106CEE0010B8EE001087
:1040100041900000462800D1DBE00492072142468F
:104020000C9B0392073352468B43190002920CC932
:104030002800009201930C9122003B005946FFF7A3
:1040400025F904005CE6631C984622003B005946B3
:104050002520A847444653E60C9B04330D93631C6C
:104060009946920700D422E10C9B22001878594609
:104070003B00A84743464444012B00D885E2330067
:10408000B8462E005F4625004C469946220043461E
:10409000013439002020B047AC42F7D12C00BB4698
:1040A000350047464E460D9B0C9329E6DB4B307896
:1040B000984600239946002800D012E60024AEE678
:1040C0006F2800D188E000D80BE31023782800D1B6
:1040D000CFE09A430A239C4600230F930A330D93A3
:1040E00080E05646B1008919490001330E1818784E
:1040F000303E010030390929F4D9B2461E0001339F
:10410000994628E60C9B023602CB8A46C9435046A4
:10411000C917084082460C933078731C99461AE6FA
:104120001023100098431133184381468020130058
:10413000C0000340024200D1A9E64B460693082383
:1041400005935346049310230393002302930F9B7C
:10415000220001931CAB009359463B002800FEF758
:104160009FFF434604000C93CAE501235B42C3E66C
:104170000F9B534501D953460F930223180010405B
:104180000D90134200D1B7E10D93D1460B1B9A4617
:104190003300A1442E0022004D460C98B9465F46DC
:1041A0009B4608E04B463900541CB0475346185D07
:1041B000002877D022009542F4D15B46BB464F469B
:1041C000A94635004C461E00C9E680231B011A4350
:1041D000FDE620231A4320E708239C4600230F9383
:1041E00008330D9380231100DB0019401A4200D1DF
:1041F00016E10D239A431000802302009B001A4011
:104200001492184200D0C2E1802302005B001A40E1
:1042100091460C9A04320F92184200D0B7E243063E
:1042200000D59FE1030600D419E30C9B1B8809937A
:10423000002B00D0FCE110339843002900D1F7E1B6
:104240000023994643460593534604930D9B0690DD
:1042500003930023D2E0582808D0622867D10223B4
:104260009C4600230F9302330D93BBE720231A4390
:10427000103B9C4600230F9310330D93B2E780232D
:104280001B011A4320231A43A1E6C0239B001A43B3
:10429000F31C9946B07882E5C0231A43F31C994673
:1042A000B0787CE535005E46BB464F4657E6434650
:1042B000012B00D863E1631E43449A463300B9469C
:1042C0002E005F4655469B46A24622004B460134CF
:1042D00039002020B047AC42F7D135005E46BB46DE
:1042E0004F46A14654460C9B4A46187859463B0017
:1042F0004444A847D7E6A1460F9B984500D832E62C
:104300004444E41A3300B8462E005F4625004C466C
:10431000994622004346013439002020B047AC4280
:10432000F7D12C00BB46350047464E461BE680239E
:104330001000DB0018401A4200D10FE111211800D3
:104340008A430D920D9A802311009B0019408C46E0
:104350001A4269D1802311005B00194089460C99EB
:1043600004310F911A4200D0CAE113005B0600D558
:10437000F0E013001B0600D459E20C9B00229B5E68
:10438000D9175A184A4092B2D90F0C91002B00D17C
:10439000F9E1100014AA944642461F231492524693
:1043A0006344A84616944D460400B946B2461F0021
:1043B000159201E0202D0FD020000A21FEF7D4F93C
:1043C00001357E193031317020000A21FEF7CCF919
:1043D00026000400092EEDD8149B4F46A9464546F9
:1043E0009846159B56469A46169C0D9B0693434647
:1043F0000593534604930A2303930C9B02934B4665
:1044000001931CAB2200009359463B002800FEF7A5
:1044100047FE0F9B04000C9372E4C046F12F00107E
:104420000C239A431000E7E607220C9B07339343C3
:10443000013294469C4462460C920CCBD90F0F91EA
:104440001100194300D191E0D917139112915140F5
:10445000109113995940119110981199129A139B28
:10446000801A99411090119114AA00239446424653
:104470009946149252461F336344A846B246169496
:104480004E46109C119DB94615921F0001E0202E4A
:1044900010D0200029000A220023FEF7A3F90136DC
:1044A00030322B00BA550D0022000400002BEED153
:1044B000092AECD8149B1094119545469846159BF3
:1044C0004F46B14656469A46169C0D9B0693434668
:1044D0000593534604930A2303930F9B02934B4681
:1044E00001931CAB2200009359463B002800FEF7C5
:1044F000D7FD0400FFF704FC0F9B984500D8C1E1ED
:104500008023DB000D9343460F9A1B199B1A994693
:1045100033002E004D46B9465F469B460C91220063
:104520004B46013439002020B047AC42F7D1434616
:104530000C9901330F930B7835000C935E46BB4604
:104540004F46002B00D10EE50D9B002B00D1F6E469
:10455000002319E60C9B1B781A0015E710239A43D9
:104560000D92EFE60C9B1B78099361E600239946B8
:104570000028AAD1002200231092119374E70C9B0B
:104580002200187859463B00A8474C468BE50C9A08
:10459000FA3BFF3B07329A430133994691444B461D
:1045A0000C931368526815921A4306D11032904347
:1045B00000220992002900D081E06122810600D505
:1045C0004122D2B20A9214AA91460A9A00210A3ACA
:1045D000149242461792524618925A460991B3468F
:1045E0001F311E000F9B4944BA4619941A950024A6
:1045F000674698468946159D16901B920AE0303210
:10460000D2B24B4601341A55A8454AD0202C4AD084
:1046100006000D003A00002330002900FEF7E2F802
:10462000D2B2092AEBD9149B9C466244D2B2E8E785
:104630006123820600D54123DBB20A3B0C9343463B
:1046400014A91F228C46159353466244A046B246D5
:104650004C461797A9461700099D0D9E1490169376
:1046600008E03033DBB201343B55B5420ED3202C89
:104670000CD0050031002800FEF776F8CBB20929EE
:10468000EFD90C9A94466344DBB2ECE7159B4D4698
:10469000A14644469846169B564614989A46179F3C
:1046A000D0E5B742B2D9179B57469846189B5E464D
:1046B0009A461B9B09949B461698199C1A9D434643
:1046C0000593534604930D9B069003930023029396
:1046D000099B05E70F9B984500D914E701330F9319
:1046E0002DE41023110099430D91692800D0BAE000
:1046F00080231000DB0018401A4200D122E61DE69C
:104700000C9B1B68DA0F1100002B00D18CE0DA172C
:104710009818504014AA914642461F2314925246BC
:104720004B44A046A946169704006546B2461F00B2
:104730000C91159201E0202D0FD020000A21FEF7E8
:1047400013F801357E193031317020000A21FEF74F
:104750000BF826000400092EEDD8149B4446984619
:104760000C9BAC461900159B56464D469A46169F23
:104770000D9B0291069343460593534604930A23E7
:10478000039363463CE6002800D02EE602E60C9B2D
:104790001B689946002B03D110339843002938D168
:1047A0006123820600D54123DBB20A3B0C934346CA
:1047B0001693534614A91F228C4617932B0062446C
:1047C000A0464D46B246189799461700149C0D9E78
:1047D000159008E03033DBB201343B55B5420ED3BF
:1047E000202C0CD0050031002800FDF7BDFFCBB216
:1047F0000929EFD90C9A94466344DBB2ECE7169B87
:10480000149444469846179B56464D469A4615982A
:10481000189F43460593534604930D9B06900393BC
:1048200000230293149BEBE50028A1D172E70C9BB7
:104830001B68D9175A184A40A6E580231000DB00F0
:1048400018409C460F901A420FD0022003001340DC
:104850000F93104219D00023A1460F934CE50C9BF7
:104860001B680993E4E40A0034E4022318001040B2
:104870000D90134200D03EE54346002B00D042E6A7
:10488000FFF771FB01330F937FE463460D93F3E76A
:104890000EB4012230B584B007AC08CC064D01003F
:1048A0000094280052420394FFF702FA04B030BC8F
:1048B00008BC03B01847C046E92F001010B50C0023
:1048C00084B00394012402A90290009303481300CA
:1048D0006242FFF7EDF904B010BDC0467D32001012
:1048E0000FB430B50C4985B008AA08CA0D68039208
:1048F000002D0CD000920122084C5242200002A947
:10490000A847012005B030BC08BC04B01847180007
:1049100000F0EAFA0020F5E79C2700206D32001035
:1049200010B5094A0300146884B0002C08D0012295
:1049300000910648524203A9A047012004B010BDCF
:1049400000F0D2FA0020F9E79C2700206D32001019
:1049500000BEFDE7094A03001068002805D0084999
:10496000C3188B4207D81360704706480449C31820
:1049700010608B42F7D901204042F5E798230020D0
:104980000000042010290020030010B508001100C9
:10499000002B05D1044B1A685B6800F071F910BD5B
:1049A00001204042FBE7C046C0ED00100300013B80
:1049B00010B508001400012B06D8012300222100A5
:1049C00000F0E0F8200010BD01204042FBE7C046A7
:1049D000012040427047C046012040427047C04617
:1049E000012040427047C0460300022200209A4244
:1049F0004041704710B5FFF7ABFFC04630B50D0022
:104A000083B01900002A0BD0074B084C0192009389
:104A100002002B002000FFF763FF0120FFF798FF43
:104A2000034B1A00F1E7C046D8E90010E8E900108E
:104A300068DE001070B5FDF74BFD074D074EB5421F
:104A400009D20024013E761BB60808CD9847230002
:104A50000134B342F9D170BD7CDD001084DD00105B
:104A6000030010B5080011001B68984710BDC04630
:104A7000F0B5C64600B5437D07000C001600002BBC
:104A800046D0002A17DD0B780A2B24D00023984645
:104A9000012E13D001252900635C01350A2B26D095
:104AA000B542F8D1464509DCA419013C23780D3BF9
:104AB0005A4253413B7580BCB846F0BD4346E018AE
:104AC000A419F11A013C3B68984723780D3B5A42E0
:104AD00053413B75EFE7037D002BD7D102210F48EF
:104AE0003B689847012EDFD001239846D2E7631E2A
:104AF0005B5C0D2BD4D0884504DA4346C91AE01814
:104B00003B689847022105483B68A8469847C7E795
:104B10000368110020009847CDE7C04618F0001048
:104B2000F0B5C6460B6806000C0000B5802B06D019
:104B30005A1C2260E418267180BCB846F0BD0F4BA9
:104B40001D68002D16D00B1D98460D4F02E02D69F3
:104B5000002D0FD02B68002BF9D03B68002B01D023
:104B6000AB42F4D1280041462268FFF781FF2D694E
:104B7000002DEFD101220023DBE7C046882300206F
:104B800094230020F0B54546DE464E465746E0B534
:104B900083B091461C0080460D00FDF75FFA0023AC
:104BA000304A12184B41002B02DA01222E4B52429E
:104BB0002E4908008A4609F0A3F807006B1C03D1B0
:104BC000404603F08BFC0500002C27D0284E294BD3
:104BD0001C68002C18D04B46002B21D1264B99463F
:104BE00002E02469002C0FD02368002BF9D04B463B
:104BF0001B68002B01D09C42F3D120002A004146C3
:104C0000B0472469002CEFD1002F26D1280003B033
:104C1000F0BCBB46B246A946A046F0BD174ED6E74B
:104C2000154B99460A239B4602E02469002CEBD0E1
:104C30002368002BF9D04B461B68002B01D0A34200
:104C4000F3D12A0041462000B0476B465A46200067
:104C5000DA71D91D0122B047E7E7504609F010F894
:104C6000D4E7C04640420F00FFFFFF7F88180020B6
:104C7000714A00108823002094230020614A00100C
:104C8000F8B557464E464546DE4698461A4BE0B5BF
:104C90009B461A4B07000E0091469A46184D5B46FC
:104CA0001C68002C03D115E02469002C12D02B685D
:104CB000002B01D0A342F7D1A368002BF4D0310020
:104CC000380098470028EFDDF0BCBB46B246A94645
:104CD000A046F8BD53465B6A984508D85246926A8A
:104CE0004A4502D302204042EEE79845FAD101201E
:104CF0000021FDF7BDF9D2E78823002000400540E0
:104D0000942300200A4A1368002B05D10CE01A00F6
:104D10001B691032002B07D08342F8D1002902D141
:104D200018691060196170470029FCD01060FAE71B
:104D30008823002010B500F07DFB10BDF0B5CE46F5
:104D40004746040080B583B0FDF788F926000027A8
:104D500036184F41002F02DA01261A4F76421A4BBD
:104D60001A4D994601AB98464B461C68002C03D15E
:104D700016E02469002C13D02B68002B01D09C4234
:104D8000F7D1A368002BF4D00121404698470028B2
:104D9000EFDD4346187803B0C0BCB946B046F0BD5D
:104DA0000B4B5A6A974207D89B6AB34202D3022040
:104DB0004042F0E79742FAD101200021FDF758F96F
:104DC000D2E7C046FFFFFF7F882300209423002006
:104DD00000400540F0B54746CE461A4B80B51A68EC
:104DE0005B689146984683B0174F184D01AE3C68FA
:104DF000002C03D115E02469002C12D02B68002B65
:104E000001D09C42F7D1A368002BF4D001213000DF
:104E100098470028EFDD307803B0C0BCB946B046F3
:104E2000F0BD0B4B5A6A904507D89B6A4B4502D39D
:104E300002204042F0E79045FAD101200021FDF721
:104E400017F9D4E7C0ED0010882300209423002038
:104E500000400540F0B5CE46474680B583B06B466E
:104E60000600DD1D2870FDF7F9F80023194A121815
:104E70004B41002B02DA0122174B5242174908001E
:104E8000884608F03DFF164B81461C68002C14D064
:104E9000144F02E02469002C0FD02368002BF9D0B6
:104EA0003B68002B01D09C42F4D120000122290054
:104EB000FFF7DEFD2469002CEFD14B46002B05D116
:104EC000300003B0C0BCB946B046F0BD404608F063
:104ED000D7FEF5E740420F00FFFFFF7F8818002054
:104EE000882300209423002070B5040003F0F6FA14
:104EF00001230100050001222000FFF743FE084BBB
:104F00001C68002C06D06368002B05D098472469E4
:104F1000002CF8D1280070BD2469002CF3D1F9E7EA
:104F200088230020F0B5CE46474680B5A3B00400E4
:104F30000D00FDF793F80023274A12184B41002B70
:104F400002DA0122254B5242254E300008F0D8FEED
:104F500000232200019307002B00224801A9FFF73C
:104F6000ADFC214B804699461C68019B002B1AD052
:104F7000002C2FD01D4D02E02469002C0FD0236897
:104F8000002BF9D02B68002B01D0A342F4D12000D4
:104F9000019A02A9FFF76CFD2469002CEFD14B4662
:104FA0001C6800230193002C06D06368002B0BD0F3
:104FB00098472469002CF8D1002F07D1404623B030
:104FC000C0BCB946B046F0BD2469ECE7300008F03B
:104FD00057FEF3E70194EFE740420F00FFFFFF7F2A
:104FE00088180020214B00108823002094230020E3
:104FF0000FB400B583B004A901C90191FFF792FF76
:1050000003B008BC04B018477047C0460022014BEB
:105010001A7070470B2900204B790020FF2B0BD111
:105020008B79002B08D1CB79012B05D1082A03D924
:10503000024B8A7809301A707047C0460B2900204D
:105040000120704710B5012913D112495379107905
:1050500009781B0203430020994200D010BD537809
:10506000012B08D0022BF9D1642200210020FDF78A
:1050700079F90120F2E7D37891781B021943480AA5
:10508000DB0501D4012040427F238A05D20F19405D
:10509000FDF7F0F90B29002000487047E4F00010FC
:1050A00070B5050014000120012909D153780020B2
:1050B000012B05D1637912791B021343072B00D012
:1050C00070BD21002800024A9F3301F055FAF7E72E
:1050D0003CF0001001230370004870471CF00010E2
:1050E0004B780A781B0213438A7810B512041A43CE
:1050F000CB781B0613439622D200934200D010BDFA
:105100000022012011004042FDF7B4F9024B186063
:10511000024B19607047C046282300202C23002032
:1051200010B5024B1878FCF7F7F910BD0C290020D8
:10513000154B70B51A68002A22D0EFF3108172B6B1
:1051400010680028FCD0BFF35F8F00200F4A596021
:1051500010701B68BFF35F8F186081F31088002404
:1051600000250B4E3078FCF7CBF9002804D1002441
:1051700000252900200070BD3078FCF7CDF9F8E754
:10518000FA240025A400ECE7C02700200D29002008
:105190000C29002070B5040000200E0001F00AFB6D
:1051A000002834D0002001F01BFB00282FD0FCF792
:1051B00055FF0023174A12184B41002B16DB164DE2
:1051C000280008F09DFD002821D0002001F0F2FA0F
:1051D00000280FD101200021404200F001FD0324EE
:1051E0006442280008F04CFD200070BD01220B4BEA
:1051F0005242E4E7002001F0F3FA0028EAD021004F
:105200003200002001F0F6FA041EEAD1E7E7032499
:105210006442E9E740420F00EC280020FFFFFF7FD7
:1052200010B5FCF71BFF00230D4A12184B41002B51
:1052300002DA01220B4B52420B4C200008F060FDB9
:1052400000280CD001200021404200F0C9FC0020C1
:1052500001F014FB0028F5D1200008F011FD10BD6D
:1052600040420F00FFFFFF7FEC280020F8B5DE462C
:10527000574680B505000C00FCF7F0FE0023364AC7
:1052800012184B41002B02DA0122344B52423449AE
:1052900008008A4608F034FD002803D1C0BCBB4694
:1052A000B246F8BD002001F085FA00284AD0002659
:1052B000002C43DD2B4B9B4614E0A919002001F084
:1052C00017FB070001200021404200F089FC00206C
:1052D00001F0D4FAFCF7C2FE224BF61918605960AF
:1052E000B4422BDD002001F023FBA71B0200B842D3
:1052F00000DD3A00002AE0D101200021404200F008
:105300006FFC002001F0BAFA002001F053FA0028E7
:1053100014D0002001F00CFB0028E1D1FCF79EFE28
:105320005B460F001A685B68002184460E4812181D
:105330004B419F4202D8D3D19445D1D9504608F071
:105340009FFCABE700200021064B186059605046D7
:1053500008F096FCA2E7C04640420F00FFFFFF7F27
:10536000EC280020101A002020A1070030B52A4C9C
:1053700085B00021200008F0A3FC00281CD1274B99
:105380001A68002A16D0EFF3108172B61068002850
:10539000FCD0BFF35F8F01242148596002781B685D
:1053A000D2B20470BFF35F8F0020186081F31088C1
:1053B000002A17D005B030BD01200021404200F086
:1053C0000FFC002001F00CFA0500200008F058FC4A
:1053D000002DEFD0134B1B68002BEBD0124A106846
:1053E0009847E7E7FCF7A2FC0400FCF737FEFA2237
:1053F0000023920012184B41002B02DA01220B4BC2
:10540000524201210291002101910949200000919D
:10541000FCF790FCCEE7C046EC280020C027002017
:105420000D290020282300202C230020FFFFFF7FD0
:1054300031510010D02310B51B0684B01C68FCF756
:1054400075FCFCF771FDA04202D0002004B010BD35
:10545000294B002100201B7801F05EFD27480368DE
:10546000002B45D00120FCF7EFF9FF23244C254900
:1054700020701840FCF76AF820780121FCF72EF81C
:105480000520FCF751F8002824D1082200211E48ED
:10549000FDF79EFDFCF74AFC0400FCF7DFFDFA2255
:1054A0000023920012184B41002B02DA0122174B05
:1054B00052420121029100210191154920000091E1
:1054C000FCF738FC0028C0DB12480121FFF71AFC6A
:1054D0000120BBE70120FBF7CFFF0B4B01001800B9
:1054E000FCF714FA002205200B49FCF759F8EBE70A
:1054F000FCF7F0F9B6E7C0467C650110EC28002007
:105500000C2900206D530010C0270020FFFFFF7FF3
:1055100031510010801100202151001000487047C7
:1055200080F10010004870472CF1001010B5040005
:1055300017480378002B20D0002C06D1154B1648B5
:105540004380063BFF3B038010BD052C1DD8134B49
:10555000A400E05812490123013804E001330A8015
:105560000231142B0DD0C25C002AF7D1C022DBB26D
:105570005B00920008481343E5E7112100F01AF898
:10558000DAE7CA2304489B00DDE70020DCE7C046D9
:10559000F4280020090400006023002014F100100A
:1055A0006223002010B5024800F0D8F810BDC046B4
:1055B000DC27002030B54B1E012900D1A7E0664A48
:1055C00011780D092C0030349F2900D9A2E0047015
:1055D000012B00D1BEE00F21147821400C003034A3
:1055E000092900D998E04470022B00D1B2E0547828
:1055F0002509290030319F2C00D990E08170032BC0
:1056000000D1A7E00F2121400C003034092900D936
:1056100087E0C470042B00D19CE094782509290010
:1056200030319F2C00D97FE00171052B00D191E032
:105630000F2121400C003034092900D976E0447153
:10564000062B00D186E0D4782509290030319F2C23
:1056500000D96EE08171072B00D17BE00F21214042
:105660000C003034092966D8C471082B00D171E0D0
:1056700014792509290030319F2C5FD80172092B3C
:1056800068D00F2121400C003034092958D84472C9
:105690000A2B5FD054792509290030319F2C52D82C
:1056A00081720B2B56D00F2121400C003034092978
:1056B0004BD8C4720C2B4DD0947925092900303178
:1056C0009F2C00D9073101730D2B43D00F212140AE
:1056D0000C003034092901D937310C0044730E2BEA
:1056E00038D0D1790C09220030329F2900D90732F5
:1056F00082730F2B2ED00F220A4011003731092A56
:1057000001D830321100C173102B23D01030002388
:10571000037030BD07345AE737310C0063E70731B7
:105720006CE737310C0074E707317DE737310C0047
:1057300085E707318EE737310C0095E707319DE7A4
:1057400037310C00A3E70731AAE737310C00C472E8
:105750000C2BB1D1C018DAE7DC27002010B588B0D7
:1057600004000D2200216846FDF732FC0D220021C5
:1057700004A8FDF72DFC4B236A466846137004A964
:105780000D2208F06DFA1521082220006944FDF76A
:1057900025FC08B010BDC046F8B500F047F90C2351
:1057A000194DFF22AB6705201849FBF7F9FE184C8D
:1057B000402200212000FDF70BFC4027002301269A
:1057C0002121144A66702783A260136063545F31FD
:1057D000618445396354104A10496360E260278749
:1057E000A1620B606362E26208F05AFA80239B05B3
:1057F0002E64EB6490230A4A0120EA508022094B70
:105800005202DA64F8BDC046000011504505002080
:105810009C23002084001050000110508000105084
:1058200010D001000020115010B501210520FBF718
:1058300055FE10BD10B500220021024800F016F9F7
:1058400010BDC046BC230020044B1970002904D0B1
:1058500080219023024A8902D150704706290020F6
:10586000002011500B785B0602D14B78052B00D03D
:1058700070478A78014B1A60FAE7C0460000115061
:10588000F0B5C646C87800B58007830F1800012B15
:1058900060D08F780A794B797F213940FC091B024F
:1058A0004E001343334D32195201AA189770012745
:1058B0006740577000275B055B0DD7701383D07668
:1058C000B846CA00012C32D02B4FBC468F0162442F
:1058D000BC46AC446746BA6047461760002932D0E0
:1058E000264AC90090466246414451603F223F33F8
:1058F0009343022837D0224937190A687F01D31809
:105900000B602049EF19FA608B422ED836197601C8
:10591000AD19EB7E1C499B064A40134380221206B8
:1059200013436A681360012080BCB846F0BD174F6E
:10593000BC468F016244BC46AC446746BA624746E7
:105940001760002908D1002364012C196360104BF3
:10595000E360E8E70020E7E70B4AC90090466246AB
:1059600041445162C2E75B00C5E7FCF7ABFDFA6852
:10597000CCE7C0469C230020840010500400105047
:10598000A4270020FF0F105000001050800010507E
:105990000001105010B508F083F910BD10B57F203C
:1059A0000C0020404000E409110000191A00034BCC
:1059B0004001C01800F05AF8012010BD9C230020BF
:1059C0007F23180000B5084083B00B4204D14B423E
:1059D0004B41084A013393668022C9094000064BB7
:1059E000401840010021C018120108F099F903B0D5
:1059F00000BDC046002011509C2300207F221300D0
:105A000010B50B400A4200D110BDC9095B005B18FC
:105A100004485B01C018002300220349C37008F04A
:105A20007FF9F1E79C230020FFF7FFFF80220A4B5C
:105A3000520410B51A60094B09491A6010000B682E
:105A40009843FBD18022002152010648FDF7C0FA9D
:105A50000922054B5A6710BD00E0004000F00040ED
:105A600008C000400000105000001150002310B585
:105A7000C3820133828283760161040008F038F921
:105A8000002804D080219023074A8902D1502000A9
:105A900008F04EF9002802D00123237710BD200022
:105AA00008F036F9FAE7C046002011507047C046AA
:105AB0007047C04600207047002070477047C046BE
:105AC0007047C0467047C0467047C046024B587882
:105AD000431E9841C0B27047401E0020024B187808
